{
  "address": "0xCf7Ed3AccA5a467e9e704C703E8D87F634fB0Fc9",
  "abi": [
    {
      "inputs": [
        {
          "internalType": "string",
          "name": "URI",
          "type": "string"
        }
      ],
      "stateMutability": "nonpayable",
      "type": "constructor"
    },
    {
      "inputs": [
        {
          "internalType": "uint256",
          "name": "mintPrice",
          "type": "uint256"
        }
      ],
      "name": "MintPriceError",
      "type": "error"
    },
    {
      "inputs": [
        {
          "internalType": "uint256",
          "name": "totalSupply",
          "type": "uint256"
        }
      ],
      "name": "SupplyLimitExceeded",
      "type": "error"
    },
    {
      "anonymous": false,
      "inputs": [
        {
          "indexed": true,
          "internalType": "address",
          "name": "account",
          "type": "address"
        },
        {
          "indexed": true,
          "internalType": "address",
          "name": "operator",
          "type": "address"
        },
        {
          "indexed": false,
          "internalType": "bool",
          "name": "approved",
          "type": "bool"
        }
      ],
      "name": "ApprovalForAll",
      "type": "event"
    },
    {
      "anonymous": false,
      "inputs": [
        {
          "indexed": true,
          "internalType": "address",
          "name": "previousOwner",
          "type": "address"
        },
        {
          "indexed": true,
          "internalType": "address",
          "name": "newOwner",
          "type": "address"
        }
      ],
      "name": "OwnershipTransferred",
      "type": "event"
    },
    {
      "anonymous": false,
      "inputs": [
        {
          "indexed": false,
          "internalType": "address",
          "name": "account",
          "type": "address"
        }
      ],
      "name": "Paused",
      "type": "event"
    },
    {
      "anonymous": false,
      "inputs": [
        {
          "indexed": true,
          "internalType": "address",
          "name": "operator",
          "type": "address"
        },
        {
          "indexed": true,
          "internalType": "address",
          "name": "from",
          "type": "address"
        },
        {
          "indexed": true,
          "internalType": "address",
          "name": "to",
          "type": "address"
        },
        {
          "indexed": false,
          "internalType": "uint256[]",
          "name": "ids",
          "type": "uint256[]"
        },
        {
          "indexed": false,
          "internalType": "uint256[]",
          "name": "values",
          "type": "uint256[]"
        }
      ],
      "name": "TransferBatch",
      "type": "event"
    },
    {
      "anonymous": false,
      "inputs": [
        {
          "indexed": true,
          "internalType": "address",
          "name": "operator",
          "type": "address"
        },
        {
          "indexed": true,
          "internalType": "address",
          "name": "from",
          "type": "address"
        },
        {
          "indexed": true,
          "internalType": "address",
          "name": "to",
          "type": "address"
        },
        {
          "indexed": false,
          "internalType": "uint256",
          "name": "id",
          "type": "uint256"
        },
        {
          "indexed": false,
          "internalType": "uint256",
          "name": "value",
          "type": "uint256"
        }
      ],
      "name": "TransferSingle",
      "type": "event"
    },
    {
      "anonymous": false,
      "inputs": [
        {
          "indexed": false,
          "internalType": "string",
          "name": "value",
          "type": "string"
        },
        {
          "indexed": true,
          "internalType": "uint256",
          "name": "id",
          "type": "uint256"
        }
      ],
      "name": "URI",
      "type": "event"
    },
    {
      "anonymous": false,
      "inputs": [
        {
          "indexed": false,
          "internalType": "address",
          "name": "account",
          "type": "address"
        }
      ],
      "name": "Unpaused",
      "type": "event"
    },
    {
      "inputs": [
        {
          "internalType": "address",
          "name": "account",
          "type": "address"
        },
        {
          "internalType": "uint256",
          "name": "id",
          "type": "uint256"
        }
      ],
      "name": "balanceOf",
      "outputs": [
        {
          "internalType": "uint256",
          "name": "",
          "type": "uint256"
        }
      ],
      "stateMutability": "view",
      "type": "function"
    },
    {
      "inputs": [
        {
          "internalType": "address[]",
          "name": "accounts",
          "type": "address[]"
        },
        {
          "internalType": "uint256[]",
          "name": "ids",
          "type": "uint256[]"
        }
      ],
      "name": "balanceOfBatch",
      "outputs": [
        {
          "internalType": "uint256[]",
          "name": "",
          "type": "uint256[]"
        }
      ],
      "stateMutability": "view",
      "type": "function"
    },
    {
      "inputs": [
        {
          "internalType": "uint256",
          "name": "id",
          "type": "uint256"
        }
      ],
      "name": "exists",
      "outputs": [
        {
          "internalType": "bool",
          "name": "",
          "type": "bool"
        }
      ],
      "stateMutability": "view",
      "type": "function"
    },
    {
      "inputs": [
        {
          "internalType": "address",
          "name": "account",
          "type": "address"
        },
        {
          "internalType": "address",
          "name": "operator",
          "type": "address"
        }
      ],
      "name": "isApprovedForAll",
      "outputs": [
        {
          "internalType": "bool",
          "name": "",
          "type": "bool"
        }
      ],
      "stateMutability": "view",
      "type": "function"
    },
    {
      "inputs": [
        {
          "internalType": "uint256",
          "name": "id",
          "type": "uint256"
        },
        {
          "internalType": "uint256",
          "name": "amount",
          "type": "uint256"
        }
      ],
      "name": "mint",
      "outputs": [],
      "stateMutability": "payable",
      "type": "function"
    },
    {
      "inputs": [
        {
          "internalType": "address",
          "name": "to",
          "type": "address"
        },
        {
          "internalType": "uint256[]",
          "name": "ids",
          "type": "uint256[]"
        },
        {
          "internalType": "uint256[]",
          "name": "amounts",
          "type": "uint256[]"
        },
        {
          "internalType": "bytes",
          "name": "data",
          "type": "bytes"
        }
      ],
      "name": "mintBatch",
      "outputs": [],
      "stateMutability": "nonpayable",
      "type": "function"
    },
    {
      "inputs": [],
      "name": "owner",
      "outputs": [
        {
          "internalType": "address",
          "name": "",
          "type": "address"
        }
      ],
      "stateMutability": "view",
      "type": "function"
    },
    {
      "inputs": [],
      "name": "pause",
      "outputs": [],
      "stateMutability": "nonpayable",
      "type": "function"
    },
    {
      "inputs": [],
      "name": "paused",
      "outputs": [
        {
          "internalType": "bool",
          "name": "",
          "type": "bool"
        }
      ],
      "stateMutability": "view",
      "type": "function"
    },
    {
      "inputs": [],
      "name": "renounceOwnership",
      "outputs": [],
      "stateMutability": "nonpayable",
      "type": "function"
    },
    {
      "inputs": [],
      "name": "s_maxSupply",
      "outputs": [
        {
          "internalType": "uint256",
          "name": "",
          "type": "uint256"
        }
      ],
      "stateMutability": "view",
      "type": "function"
    },
    {
      "inputs": [],
      "name": "s_mintPrice",
      "outputs": [
        {
          "internalType": "uint256",
          "name": "",
          "type": "uint256"
        }
      ],
      "stateMutability": "view",
      "type": "function"
    },
    {
      "inputs": [
        {
          "internalType": "address",
          "name": "from",
          "type": "address"
        },
        {
          "internalType": "address",
          "name": "to",
          "type": "address"
        },
        {
          "internalType": "uint256[]",
          "name": "ids",
          "type": "uint256[]"
        },
        {
          "internalType": "uint256[]",
          "name": "amounts",
          "type": "uint256[]"
        },
        {
          "internalType": "bytes",
          "name": "data",
          "type": "bytes"
        }
      ],
      "name": "safeBatchTransferFrom",
      "outputs": [],
      "stateMutability": "nonpayable",
      "type": "function"
    },
    {
      "inputs": [
        {
          "internalType": "address",
          "name": "from",
          "type": "address"
        },
        {
          "internalType": "address",
          "name": "to",
          "type": "address"
        },
        {
          "internalType": "uint256",
          "name": "id",
          "type": "uint256"
        },
        {
          "internalType": "uint256",
          "name": "amount",
          "type": "uint256"
        },
        {
          "internalType": "bytes",
          "name": "data",
          "type": "bytes"
        }
      ],
      "name": "safeTransferFrom",
      "outputs": [],
      "stateMutability": "nonpayable",
      "type": "function"
    },
    {
      "inputs": [
        {
          "internalType": "address",
          "name": "operator",
          "type": "address"
        },
        {
          "internalType": "bool",
          "name": "approved",
          "type": "bool"
        }
      ],
      "name": "setApprovalForAll",
      "outputs": [],
      "stateMutability": "nonpayable",
      "type": "function"
    },
    {
      "inputs": [
        {
          "internalType": "string",
          "name": "newURI",
          "type": "string"
        }
      ],
      "name": "setURI",
      "outputs": [],
      "stateMutability": "nonpayable",
      "type": "function"
    },
    {
      "inputs": [
        {
          "internalType": "bytes4",
          "name": "interfaceId",
          "type": "bytes4"
        }
      ],
      "name": "supportsInterface",
      "outputs": [
        {
          "internalType": "bool",
          "name": "",
          "type": "bool"
        }
      ],
      "stateMutability": "view",
      "type": "function"
    },
    {
      "inputs": [
        {
          "internalType": "uint256",
          "name": "id",
          "type": "uint256"
        }
      ],
      "name": "totalSupply",
      "outputs": [
        {
          "internalType": "uint256",
          "name": "",
          "type": "uint256"
        }
      ],
      "stateMutability": "view",
      "type": "function"
    },
    {
      "inputs": [
        {
          "internalType": "address",
          "name": "newOwner",
          "type": "address"
        }
      ],
      "name": "transferOwnership",
      "outputs": [],
      "stateMutability": "nonpayable",
      "type": "function"
    },
    {
      "inputs": [],
      "name": "unpause",
      "outputs": [],
      "stateMutability": "nonpayable",
      "type": "function"
    },
    {
      "inputs": [
        {
          "internalType": "uint256",
          "name": "",
          "type": "uint256"
        }
      ],
      "name": "uri",
      "outputs": [
        {
          "internalType": "string",
          "name": "",
          "type": "string"
        }
      ],
      "stateMutability": "view",
      "type": "function"
    }
  ],
  "transactionHash": "0x0a4161b66344a3e28ae0d601018068745426dd745d74d4584911bf7e7eff9027",
  "args": [
    "ipfs://Qmaa6TuP2s9pSKczHF4rwWhTKUdygrrDs8RmYYqCjP3Hye/"
  ],
  "numDeployments": 2,
  "solcInputHash": "ec004945267dc16d3dbab09622e0bda1",
  "bytecode": "0x60806040523480156200001157600080fd5b506040516200413338038062004133833981810160405281019062000037919062000302565b8062000049816200008c60201b60201c565b506200006a6200005e620000a160201b60201c565b620000a960201b60201c565b6000600360146101000a81548160ff0219169083151502179055505062000685565b80600290816200009d91906200059e565b5050565b600033905090565b6000600360009054906101000a900473ffffffffffffffffffffffffffffffffffffffff16905081600360006101000a81548173ffffffffffffffffffffffffffffffffffffffff021916908373ffffffffffffffffffffffffffffffffffffffff1602179055508173ffffffffffffffffffffffffffffffffffffffff168173ffffffffffffffffffffffffffffffffffffffff167f8be0079c531659141344cd1fd0a4f28419497f9722a3daafe3b4186f6b6457e060405160405180910390a35050565b6000604051905090565b600080fd5b600080fd5b600080fd5b600080fd5b6000601f19601f8301169050919050565b7f4e487b7100000000000000000000000000000000000000000000000000000000600052604160045260246000fd5b620001d8826200018d565b810181811067ffffffffffffffff82111715620001fa57620001f96200019e565b5b80604052505050565b60006200020f6200016f565b90506200021d8282620001cd565b919050565b600067ffffffffffffffff82111562000240576200023f6200019e565b5b6200024b826200018d565b9050602081019050919050565b60005b83811015620002785780820151818401526020810190506200025b565b60008484015250505050565b60006200029b620002958462000222565b62000203565b905082815260208101848484011115620002ba57620002b962000188565b5b620002c784828562000258565b509392505050565b600082601f830112620002e757620002e662000183565b5b8151620002f984826020860162000284565b91505092915050565b6000602082840312156200031b576200031a62000179565b5b600082015167ffffffffffffffff8111156200033c576200033b6200017e565b5b6200034a84828501620002cf565b91505092915050565b600081519050919050565b7f4e487b7100000000000000000000000000000000000000000000000000000000600052602260045260246000fd5b60006002820490506001821680620003a657607f821691505b602082108103620003bc57620003bb6200035e565b5b50919050565b60008190508160005260206000209050919050565b60006020601f8301049050919050565b600082821b905092915050565b600060088302620004267fffffffffffffffffffffffffffffffffffffffffffffffffffffffffffffffff82620003e7565b620004328683620003e7565b95508019841693508086168417925050509392505050565b6000819050919050565b6000819050919050565b60006200047f6200047962000473846200044a565b62000454565b6200044a565b9050919050565b6000819050919050565b6200049b836200045e565b620004b3620004aa8262000486565b848454620003f4565b825550505050565b600090565b620004ca620004bb565b620004d781848462000490565b505050565b5b81811015620004ff57620004f3600082620004c0565b600181019050620004dd565b5050565b601f8211156200054e576200051881620003c2565b6200052384620003d7565b8101602085101562000533578190505b6200054b6200054285620003d7565b830182620004dc565b50505b505050565b600082821c905092915050565b6000620005736000198460080262000553565b1980831691505092915050565b60006200058e838362000560565b9150826002028217905092915050565b620005a98262000353565b67ffffffffffffffff811115620005c557620005c46200019e565b5b620005d182546200038d565b620005de82828562000503565b600060209050601f83116001811462000616576000841562000601578287015190505b6200060d858262000580565b8655506200067d565b601f1984166200062686620003c2565b60005b82811015620006505784890151825560018201915060208501945060208101905062000629565b868310156200067057848901516200066c601f89168262000560565b8355505b6001600288020188555050505b505050505050565b613a9e80620006956000396000f3fe6080604052600436106101295760003560e01c80634f558e79116100ab5780638da5cb5b1161006f5780638da5cb5b146103bc578063a22cb465146103e7578063bd85b03914610410578063e985e9c51461044d578063f242432a1461048a578063f2fde38b146104b357610129565b80634f558e79146102fb5780635c975abb146103385780635d64184714610363578063715018a61461038e5780638456cb59146103a557610129565b80631f7fdffa116100f25780631f7fdffa1461022a578063282f6cf5146102535780632eb2c2d61461027e5780633f4ba83a146102a75780634e1273f4146102be57610129565b8062fdd58e1461012e57806301ffc9a71461016b57806302fe5305146101a85780630e89341c146101d15780631b2ef1ca1461020e575b600080fd5b34801561013a57600080fd5b5061015560048036038101906101509190612170565b6104dc565b60405161016291906121bf565b60405180910390f35b34801561017757600080fd5b50610192600480360381019061018d9190612232565b6105a4565b60405161019f919061227a565b60405180910390f35b3480156101b457600080fd5b506101cf60048036038101906101ca91906123db565b610686565b005b3480156101dd57600080fd5b506101f860048036038101906101f39190612424565b61069a565b60405161020591906124d0565b60405180910390f35b610228600480360381019061022391906124f2565b61072e565b005b34801561023657600080fd5b50610251600480360381019061024c919061269b565b6107fd565b005b34801561025f57600080fd5b50610268610817565b60405161027591906121bf565b60405180910390f35b34801561028a57600080fd5b506102a560048036038101906102a09190612756565b610822565b005b3480156102b357600080fd5b506102bc6108c3565b005b3480156102ca57600080fd5b506102e560048036038101906102e091906128e8565b6108d5565b6040516102f29190612a1e565b60405180910390f35b34801561030757600080fd5b50610322600480360381019061031d9190612424565b6109ee565b60405161032f919061227a565b60405180910390f35b34801561034457600080fd5b5061034d610a02565b60405161035a919061227a565b60405180910390f35b34801561036f57600080fd5b50610378610a19565b60405161038591906121bf565b60405180910390f35b34801561039a57600080fd5b506103a3610a1e565b005b3480156103b157600080fd5b506103ba610a32565b005b3480156103c857600080fd5b506103d1610a44565b6040516103de9190612a4f565b60405180910390f35b3480156103f357600080fd5b5061040e60048036038101906104099190612a96565b610a6e565b005b34801561041c57600080fd5b5061043760048036038101906104329190612424565b610a84565b60405161044491906121bf565b60405180910390f35b34801561045957600080fd5b50610474600480360381019061046f9190612ad6565b610aa1565b604051610481919061227a565b60405180910390f35b34801561049657600080fd5b506104b160048036038101906104ac9190612b16565b610b35565b005b3480156104bf57600080fd5b506104da60048036038101906104d59190612bad565b610bd6565b005b60008073ffffffffffffffffffffffffffffffffffffffff168373ffffffffffffffffffffffffffffffffffffffff160361054c576040517f08c379a000000000000000000000000000000000000000000000000000000000815260040161054390612c4c565b60405180910390fd5b60008083815260200190815260200160002060008473ffffffffffffffffffffffffffffffffffffffff1673ffffffffffffffffffffffffffffffffffffffff16815260200190815260200160002054905092915050565b60007fd9b67a26000000000000000000000000000000000000000000000000000000007bffffffffffffffffffffffffffffffffffffffffffffffffffffffff1916827bffffffffffffffffffffffffffffffffffffffffffffffffffffffff1916148061066f57507f0e89341c000000000000000000000000000000000000000000000000000000007bffffffffffffffffffffffffffffffffffffffffffffffffffffffff1916827bffffffffffffffffffffffffffffffffffffffffffffffffffffffff1916145b8061067f575061067e82610c59565b5b9050919050565b61068e610cc3565b61069781610d41565b50565b6060600280546106a990612c9b565b80601f01602080910402602001604051908101604052809291908181526020018280546106d590612c9b565b80156107225780601f106106f757610100808354040283529160200191610722565b820191906000526020600020905b81548152906001019060200180831161070557829003601f168201915b50505050509050919050565b80662386f26fc100006107419190612cfb565b341461078457346040517f31533c9b00000000000000000000000000000000000000000000000000000000815260040161077b91906121bf565b60405180910390fd5b60648161079084610a84565b61079a9190612d3d565b11156107de5760646040517f0810bd480000000000000000000000000000000000000000000000000000000081526004016107d591906121bf565b60405180910390fd5b6107f933838360405180602001604052806000815250610d54565b5050565b610805610cc3565b61081184848484610f04565b50505050565b662386f26fc1000081565b61082a611130565b73ffffffffffffffffffffffffffffffffffffffff168573ffffffffffffffffffffffffffffffffffffffff161480610870575061086f8561086a611130565b610aa1565b5b6108af576040517f08c379a00000000000000000000000000000000000000000000000000000000081526004016108a690612de3565b60405180910390fd5b6108bc8585858585611138565b5050505050565b6108cb610cc3565b6108d3611459565b565b6060815183511461091b576040517f08c379a000000000000000000000000000000000000000000000000000000000815260040161091290612e75565b60405180910390fd5b6000835167ffffffffffffffff811115610938576109376122b0565b5b6040519080825280602002602001820160405280156109665781602001602082028036833780820191505090505b50905060005b84518110156109e3576109b385828151811061098b5761098a612e95565b5b60200260200101518583815181106109a6576109a5612e95565b5b60200260200101516104dc565b8282815181106109c6576109c5612e95565b5b602002602001018181525050806109dc90612ec4565b905061096c565b508091505092915050565b6000806109fa83610a84565b119050919050565b6000600360149054906101000a900460ff16905090565b606481565b610a26610cc3565b610a3060006114bc565b565b610a3a610cc3565b610a42611582565b565b6000600360009054906101000a900473ffffffffffffffffffffffffffffffffffffffff16905090565b610a80610a79611130565b83836115e5565b5050565b600060046000838152602001908152602001600020549050919050565b6000600160008473ffffffffffffffffffffffffffffffffffffffff1673ffffffffffffffffffffffffffffffffffffffff16815260200190815260200160002060008373ffffffffffffffffffffffffffffffffffffffff1673ffffffffffffffffffffffffffffffffffffffff16815260200190815260200160002060009054906101000a900460ff16905092915050565b610b3d611130565b73ffffffffffffffffffffffffffffffffffffffff168573ffffffffffffffffffffffffffffffffffffffff161480610b835750610b8285610b7d611130565b610aa1565b5b610bc2576040517f08c379a0000000000000000000000000000000000000000000000000000000008152600401610bb990612de3565b60405180910390fd5b610bcf8585858585611751565b5050505050565b610bde610cc3565b600073ffffffffffffffffffffffffffffffffffffffff168173ffffffffffffffffffffffffffffffffffffffff1603610c4d576040517f08c379a0000000000000000000000000000000000000000000000000000000008152600401610c4490612f7e565b60405180910390fd5b610c56816114bc565b50565b60007f01ffc9a7000000000000000000000000000000000000000000000000000000007bffffffffffffffffffffffffffffffffffffffffffffffffffffffff1916827bffffffffffffffffffffffffffffffffffffffffffffffffffffffff1916149050919050565b610ccb611130565b73ffffffffffffffffffffffffffffffffffffffff16610ce9610a44565b73ffffffffffffffffffffffffffffffffffffffff1614610d3f576040517f08c379a0000000000000000000000000000000000000000000000000000000008152600401610d3690612fea565b60405180910390fd5b565b8060029081610d5091906131b6565b5050565b600073ffffffffffffffffffffffffffffffffffffffff168473ffffffffffffffffffffffffffffffffffffffff1603610dc3576040517f08c379a0000000000000000000000000000000000000000000000000000000008152600401610dba906132fa565b60405180910390fd5b6000610dcd611130565b90506000610dda856119ec565b90506000610de7856119ec565b9050610df883600089858589611a66565b8460008088815260200190815260200160002060008973ffffffffffffffffffffffffffffffffffffffff1673ffffffffffffffffffffffffffffffffffffffff1681526020019081526020016000206000828254610e579190612d3d565b925050819055508673ffffffffffffffffffffffffffffffffffffffff16600073ffffffffffffffffffffffffffffffffffffffff168473ffffffffffffffffffffffffffffffffffffffff167fc3d58168c5ae7397731d063d5bbf3d657854427343f4c083240f7aacaa2d0f628989604051610ed592919061331a565b60405180910390a4610eec83600089858589611a84565b610efb83600089898989611a8c565b50505050505050565b600073ffffffffffffffffffffffffffffffffffffffff168473ffffffffffffffffffffffffffffffffffffffff1603610f73576040517f08c379a0000000000000000000000000000000000000000000000000000000008152600401610f6a906132fa565b60405180910390fd5b8151835114610fb7576040517f08c379a0000000000000000000000000000000000000000000000000000000008152600401610fae906133b5565b60405180910390fd5b6000610fc1611130565b9050610fd281600087878787611a66565b60005b845181101561108b57838181518110610ff157610ff0612e95565b5b602002602001015160008087848151811061100f5761100e612e95565b5b6020026020010151815260200190815260200160002060008873ffffffffffffffffffffffffffffffffffffffff1673ffffffffffffffffffffffffffffffffffffffff16815260200190815260200160002060008282546110719190612d3d565b92505081905550808061108390612ec4565b915050610fd5565b508473ffffffffffffffffffffffffffffffffffffffff16600073ffffffffffffffffffffffffffffffffffffffff168273ffffffffffffffffffffffffffffffffffffffff167f4a39dc06d4c0dbc64b70af90fd698a233a518aa5d07e595d983b8c0526c8f7fb87876040516111039291906133d5565b60405180910390a461111a81600087878787611a84565b61112981600087878787611c63565b5050505050565b600033905090565b815183511461117c576040517f08c379a0000000000000000000000000000000000000000000000000000000008152600401611173906133b5565b60405180910390fd5b600073ffffffffffffffffffffffffffffffffffffffff168473ffffffffffffffffffffffffffffffffffffffff16036111eb576040517f08c379a00000000000000000000000000000000000000000000000000000000081526004016111e29061347e565b60405180910390fd5b60006111f5611130565b9050611205818787878787611a66565b60005b84518110156113b657600085828151811061122657611225612e95565b5b60200260200101519050600085838151811061124557611244612e95565b5b60200260200101519050600080600084815260200190815260200160002060008b73ffffffffffffffffffffffffffffffffffffffff1673ffffffffffffffffffffffffffffffffffffffff168152602001908152602001600020549050818110156112e6576040517f08c379a00000000000000000000000000000000000000000000000000000000081526004016112dd90613510565b60405180910390fd5b81810360008085815260200190815260200160002060008c73ffffffffffffffffffffffffffffffffffffffff1673ffffffffffffffffffffffffffffffffffffffff168152602001908152602001600020819055508160008085815260200190815260200160002060008b73ffffffffffffffffffffffffffffffffffffffff1673ffffffffffffffffffffffffffffffffffffffff168152602001908152602001600020600082825461139b9190612d3d565b92505081905550505050806113af90612ec4565b9050611208565b508473ffffffffffffffffffffffffffffffffffffffff168673ffffffffffffffffffffffffffffffffffffffff168273ffffffffffffffffffffffffffffffffffffffff167f4a39dc06d4c0dbc64b70af90fd698a233a518aa5d07e595d983b8c0526c8f7fb878760405161142d9291906133d5565b60405180910390a4611443818787878787611a84565b611451818787878787611c63565b505050505050565b611461611e3a565b6000600360146101000a81548160ff0219169083151502179055507f5db9ee0a495bf2e6ff9c91a7834c1ba4fdd244a5e8aa4e537bd38aeae4b073aa6114a5611130565b6040516114b29190612a4f565b60405180910390a1565b6000600360009054906101000a900473ffffffffffffffffffffffffffffffffffffffff16905081600360006101000a81548173ffffffffffffffffffffffffffffffffffffffff021916908373ffffffffffffffffffffffffffffffffffffffff1602179055508173ffffffffffffffffffffffffffffffffffffffff168173ffffffffffffffffffffffffffffffffffffffff167f8be0079c531659141344cd1fd0a4f28419497f9722a3daafe3b4186f6b6457e060405160405180910390a35050565b61158a611e83565b6001600360146101000a81548160ff0219169083151502179055507f62e78cea01bee320cd4e420270b5ea74000d11b0c9f74754ebdbfc544b05a2586115ce611130565b6040516115db9190612a4f565b60405180910390a1565b8173ffffffffffffffffffffffffffffffffffffffff168373ffffffffffffffffffffffffffffffffffffffff1603611653576040517f08c379a000000000000000000000000000000000000000000000000000000000815260040161164a906135a2565b60405180910390fd5b80600160008573ffffffffffffffffffffffffffffffffffffffff1673ffffffffffffffffffffffffffffffffffffffff16815260200190815260200160002060008473ffffffffffffffffffffffffffffffffffffffff1673ffffffffffffffffffffffffffffffffffffffff16815260200190815260200160002060006101000a81548160ff0219169083151502179055508173ffffffffffffffffffffffffffffffffffffffff168373ffffffffffffffffffffffffffffffffffffffff167f17307eab39ab6107e8899845ad3d59bd9653f200f220920489ca2b5937696c3183604051611744919061227a565b60405180910390a3505050565b600073ffffffffffffffffffffffffffffffffffffffff168473ffffffffffffffffffffffffffffffffffffffff16036117c0576040517f08c379a00000000000000000000000000000000000000000000000000000000081526004016117b79061347e565b60405180910390fd5b60006117ca611130565b905060006117d7856119ec565b905060006117e4856119ec565b90506117f4838989858589611a66565b600080600088815260200190815260200160002060008a73ffffffffffffffffffffffffffffffffffffffff1673ffffffffffffffffffffffffffffffffffffffff1681526020019081526020016000205490508581101561188b576040517f08c379a000000000000000000000000000000000000000000000000000000000815260040161188290613510565b60405180910390fd5b85810360008089815260200190815260200160002060008b73ffffffffffffffffffffffffffffffffffffffff1673ffffffffffffffffffffffffffffffffffffffff168152602001908152602001600020819055508560008089815260200190815260200160002060008a73ffffffffffffffffffffffffffffffffffffffff1673ffffffffffffffffffffffffffffffffffffffff16815260200190815260200160002060008282546119409190612d3d565b925050819055508773ffffffffffffffffffffffffffffffffffffffff168973ffffffffffffffffffffffffffffffffffffffff168573ffffffffffffffffffffffffffffffffffffffff167fc3d58168c5ae7397731d063d5bbf3d657854427343f4c083240f7aacaa2d0f628a8a6040516119bd92919061331a565b60405180910390a46119d3848a8a86868a611a84565b6119e1848a8a8a8a8a611a8c565b505050505050505050565b60606000600167ffffffffffffffff811115611a0b57611a0a6122b0565b5b604051908082528060200260200182016040528015611a395781602001602082028036833780820191505090505b5090508281600081518110611a5157611a50612e95565b5b60200260200101818152505080915050919050565b611a6e611e83565b611a7c868686868686611ecd565b505050505050565b505050505050565b611aab8473ffffffffffffffffffffffffffffffffffffffff1661209d565b15611c5b578373ffffffffffffffffffffffffffffffffffffffff1663f23a6e6187878686866040518663ffffffff1660e01b8152600401611af1959493929190613617565b6020604051808303816000875af1925050508015611b2d57506040513d601f19601f82011682018060405250810190611b2a9190613686565b60015b611bd257611b396136c0565b806308c379a003611b955750611b4d6136e2565b80611b585750611b97565b806040517f08c379a0000000000000000000000000000000000000000000000000000000008152600401611b8c91906124d0565b60405180910390fd5b505b6040517f08c379a0000000000000000000000000000000000000000000000000000000008152600401611bc9906137e4565b60405180910390fd5b63f23a6e6160e01b7bffffffffffffffffffffffffffffffffffffffffffffffffffffffff1916817bffffffffffffffffffffffffffffffffffffffffffffffffffffffff191614611c59576040517f08c379a0000000000000000000000000000000000000000000000000000000008152600401611c5090613876565b60405180910390fd5b505b505050505050565b611c828473ffffffffffffffffffffffffffffffffffffffff1661209d565b15611e32578373ffffffffffffffffffffffffffffffffffffffff1663bc197c8187878686866040518663ffffffff1660e01b8152600401611cc8959493929190613896565b6020604051808303816000875af1925050508015611d0457506040513d601f19601f82011682018060405250810190611d019190613686565b60015b611da957611d106136c0565b806308c379a003611d6c5750611d246136e2565b80611d2f5750611d6e565b806040517f08c379a0000000000000000000000000000000000000000000000000000000008152600401611d6391906124d0565b60405180910390fd5b505b6040517f08c379a0000000000000000000000000000000000000000000000000000000008152600401611da0906137e4565b60405180910390fd5b63bc197c8160e01b7bffffffffffffffffffffffffffffffffffffffffffffffffffffffff1916817bffffffffffffffffffffffffffffffffffffffffffffffffffffffff191614611e30576040517f08c379a0000000000000000000000000000000000000000000000000000000008152600401611e2790613876565b60405180910390fd5b505b505050505050565b611e42610a02565b611e81576040517f08c379a0000000000000000000000000000000000000000000000000000000008152600401611e789061394a565b60405180910390fd5b565b611e8b610a02565b15611ecb576040517f08c379a0000000000000000000000000000000000000000000000000000000008152600401611ec2906139b6565b60405180910390fd5b565b611edb8686868686866120c0565b600073ffffffffffffffffffffffffffffffffffffffff168573ffffffffffffffffffffffffffffffffffffffff1603611f8c5760005b8351811015611f8a57828181518110611f2e57611f2d612e95565b5b602002602001015160046000868481518110611f4d57611f4c612e95565b5b602002602001015181526020019081526020016000206000828254611f729190612d3d565b9250508190555080611f8390612ec4565b9050611f12565b505b600073ffffffffffffffffffffffffffffffffffffffff168473ffffffffffffffffffffffffffffffffffffffff16036120955760005b8351811015612093576000848281518110611fe157611fe0612e95565b5b60200260200101519050600084838151811061200057611fff612e95565b5b6020026020010151905060006004600084815260200190815260200160002054905081811015612065576040517f08c379a000000000000000000000000000000000000000000000000000000000815260040161205c90613a48565b60405180910390fd5b81810360046000858152602001908152602001600020819055505050508061208c90612ec4565b9050611fc3565b505b505050505050565b6000808273ffffffffffffffffffffffffffffffffffffffff163b119050919050565b505050505050565b6000604051905090565b600080fd5b600080fd5b600073ffffffffffffffffffffffffffffffffffffffff82169050919050565b6000612107826120dc565b9050919050565b612117816120fc565b811461212257600080fd5b50565b6000813590506121348161210e565b92915050565b6000819050919050565b61214d8161213a565b811461215857600080fd5b50565b60008135905061216a81612144565b92915050565b60008060408385031215612187576121866120d2565b5b600061219585828601612125565b92505060206121a68582860161215b565b9150509250929050565b6121b98161213a565b82525050565b60006020820190506121d460008301846121b0565b92915050565b60007fffffffff0000000000000000000000000000000000000000000000000000000082169050919050565b61220f816121da565b811461221a57600080fd5b50565b60008135905061222c81612206565b92915050565b600060208284031215612248576122476120d2565b5b60006122568482850161221d565b91505092915050565b60008115159050919050565b6122748161225f565b82525050565b600060208201905061228f600083018461226b565b92915050565b600080fd5b600080fd5b6000601f19601f8301169050919050565b7f4e487b7100000000000000000000000000000000000000000000000000000000600052604160045260246000fd5b6122e88261229f565b810181811067ffffffffffffffff82111715612307576123066122b0565b5b80604052505050565b600061231a6120c8565b905061232682826122df565b919050565b600067ffffffffffffffff821115612346576123456122b0565b5b61234f8261229f565b9050602081019050919050565b82818337600083830152505050565b600061237e6123798461232b565b612310565b90508281526020810184848401111561239a5761239961229a565b5b6123a584828561235c565b509392505050565b600082601f8301126123c2576123c1612295565b5b81356123d284826020860161236b565b91505092915050565b6000602082840312156123f1576123f06120d2565b5b600082013567ffffffffffffffff81111561240f5761240e6120d7565b5b61241b848285016123ad565b91505092915050565b60006020828403121561243a576124396120d2565b5b60006124488482850161215b565b91505092915050565b600081519050919050565b600082825260208201905092915050565b60005b8381101561248b578082015181840152602081019050612470565b60008484015250505050565b60006124a282612451565b6124ac818561245c565b93506124bc81856020860161246d565b6124c58161229f565b840191505092915050565b600060208201905081810360008301526124ea8184612497565b905092915050565b60008060408385031215612509576125086120d2565b5b60006125178582860161215b565b92505060206125288582860161215b565b9150509250929050565b600067ffffffffffffffff82111561254d5761254c6122b0565b5b602082029050602081019050919050565b600080fd5b600061257661257184612532565b612310565b905080838252602082019050602084028301858111156125995761259861255e565b5b835b818110156125c257806125ae888261215b565b84526020840193505060208101905061259b565b5050509392505050565b600082601f8301126125e1576125e0612295565b5b81356125f1848260208601612563565b91505092915050565b600067ffffffffffffffff821115612615576126146122b0565b5b61261e8261229f565b9050602081019050919050565b600061263e612639846125fa565b612310565b90508281526020810184848401111561265a5761265961229a565b5b61266584828561235c565b509392505050565b600082601f83011261268257612681612295565b5b813561269284826020860161262b565b91505092915050565b600080600080608085870312156126b5576126b46120d2565b5b60006126c387828801612125565b945050602085013567ffffffffffffffff8111156126e4576126e36120d7565b5b6126f0878288016125cc565b935050604085013567ffffffffffffffff811115612711576127106120d7565b5b61271d878288016125cc565b925050606085013567ffffffffffffffff81111561273e5761273d6120d7565b5b61274a8782880161266d565b91505092959194509250565b600080600080600060a08688031215612772576127716120d2565b5b600061278088828901612125565b955050602061279188828901612125565b945050604086013567ffffffffffffffff8111156127b2576127b16120d7565b5b6127be888289016125cc565b935050606086013567ffffffffffffffff8111156127df576127de6120d7565b5b6127eb888289016125cc565b925050608086013567ffffffffffffffff81111561280c5761280b6120d7565b5b6128188882890161266d565b9150509295509295909350565b600067ffffffffffffffff8211156128405761283f6122b0565b5b602082029050602081019050919050565b600061286461285f84612825565b612310565b905080838252602082019050602084028301858111156128875761288661255e565b5b835b818110156128b0578061289c8882612125565b845260208401935050602081019050612889565b5050509392505050565b600082601f8301126128cf576128ce612295565b5b81356128df848260208601612851565b91505092915050565b600080604083850312156128ff576128fe6120d2565b5b600083013567ffffffffffffffff81111561291d5761291c6120d7565b5b612929858286016128ba565b925050602083013567ffffffffffffffff81111561294a576129496120d7565b5b612956858286016125cc565b9150509250929050565b600081519050919050565b600082825260208201905092915050565b6000819050602082019050919050565b6129958161213a565b82525050565b60006129a7838361298c565b60208301905092915050565b6000602082019050919050565b60006129cb82612960565b6129d5818561296b565b93506129e08361297c565b8060005b83811015612a115781516129f8888261299b565b9750612a03836129b3565b9250506001810190506129e4565b5085935050505092915050565b60006020820190508181036000830152612a3881846129c0565b905092915050565b612a49816120fc565b82525050565b6000602082019050612a646000830184612a40565b92915050565b612a738161225f565b8114612a7e57600080fd5b50565b600081359050612a9081612a6a565b92915050565b60008060408385031215612aad57612aac6120d2565b5b6000612abb85828601612125565b9250506020612acc85828601612a81565b9150509250929050565b60008060408385031215612aed57612aec6120d2565b5b6000612afb85828601612125565b9250506020612b0c85828601612125565b9150509250929050565b600080600080600060a08688031215612b3257612b316120d2565b5b6000612b4088828901612125565b9550506020612b5188828901612125565b9450506040612b628882890161215b565b9350506060612b738882890161215b565b925050608086013567ffffffffffffffff811115612b9457612b936120d7565b5b612ba08882890161266d565b9150509295509295909350565b600060208284031215612bc357612bc26120d2565b5b6000612bd184828501612125565b91505092915050565b7f455243313135353a2061646472657373207a65726f206973206e6f742061207660008201527f616c6964206f776e657200000000000000000000000000000000000000000000602082015250565b6000612c36602a8361245c565b9150612c4182612bda565b604082019050919050565b60006020820190508181036000830152612c6581612c29565b9050919050565b7f4e487b7100000000000000000000000000000000000000000000000000000000600052602260045260246000fd5b60006002820490506001821680612cb357607f821691505b602082108103612cc657612cc5612c6c565b5b50919050565b7f4e487b7100000000000000000000000000000000000000000000000000000000600052601160045260246000fd5b6000612d068261213a565b9150612d118361213a565b9250828202612d1f8161213a565b91508282048414831517612d3657612d35612ccc565b5b5092915050565b6000612d488261213a565b9150612d538361213a565b9250828201905080821115612d6b57612d6a612ccc565b5b92915050565b7f455243313135353a2063616c6c6572206973206e6f7420746f6b656e206f776e60008201527f6572206f7220617070726f766564000000000000000000000000000000000000602082015250565b6000612dcd602e8361245c565b9150612dd882612d71565b604082019050919050565b60006020820190508181036000830152612dfc81612dc0565b9050919050565b7f455243313135353a206163636f756e747320616e6420696473206c656e67746860008201527f206d69736d617463680000000000000000000000000000000000000000000000602082015250565b6000612e5f60298361245c565b9150612e6a82612e03565b604082019050919050565b60006020820190508181036000830152612e8e81612e52565b9050919050565b7f4e487b7100000000000000000000000000000000000000000000000000000000600052603260045260246000fd5b6000612ecf8261213a565b91507fffffffffffffffffffffffffffffffffffffffffffffffffffffffffffffffff8203612f0157612f00612ccc565b5b600182019050919050565b7f4f776e61626c653a206e6577206f776e657220697320746865207a65726f206160008201527f6464726573730000000000000000000000000000000000000000000000000000602082015250565b6000612f6860268361245c565b9150612f7382612f0c565b604082019050919050565b60006020820190508181036000830152612f9781612f5b565b9050919050565b7f4f776e61626c653a2063616c6c6572206973206e6f7420746865206f776e6572600082015250565b6000612fd460208361245c565b9150612fdf82612f9e565b602082019050919050565b6000602082019050818103600083015261300381612fc7565b9050919050565b60008190508160005260206000209050919050565b60006020601f8301049050919050565b600082821b905092915050565b60006008830261306c7fffffffffffffffffffffffffffffffffffffffffffffffffffffffffffffffff8261302f565b613076868361302f565b95508019841693508086168417925050509392505050565b6000819050919050565b60006130b36130ae6130a98461213a565b61308e565b61213a565b9050919050565b6000819050919050565b6130cd83613098565b6130e16130d9826130ba565b84845461303c565b825550505050565b600090565b6130f66130e9565b6131018184846130c4565b505050565b5b818110156131255761311a6000826130ee565b600181019050613107565b5050565b601f82111561316a5761313b8161300a565b6131448461301f565b81016020851015613153578190505b61316761315f8561301f565b830182613106565b50505b505050565b600082821c905092915050565b600061318d6000198460080261316f565b1980831691505092915050565b60006131a6838361317c565b9150826002028217905092915050565b6131bf82612451565b67ffffffffffffffff8111156131d8576131d76122b0565b5b6131e28254612c9b565b6131ed828285613129565b600060209050601f831160018114613220576000841561320e578287015190505b613218858261319a565b865550613280565b601f19841661322e8661300a565b60005b8281101561325657848901518255600182019150602085019450602081019050613231565b86831015613273578489015161326f601f89168261317c565b8355505b6001600288020188555050505b505050505050565b7f455243313135353a206d696e7420746f20746865207a65726f2061646472657360008201527f7300000000000000000000000000000000000000000000000000000000000000602082015250565b60006132e460218361245c565b91506132ef82613288565b604082019050919050565b60006020820190508181036000830152613313816132d7565b9050919050565b600060408201905061332f60008301856121b0565b61333c60208301846121b0565b9392505050565b7f455243313135353a2069647320616e6420616d6f756e7473206c656e6774682060008201527f6d69736d61746368000000000000000000000000000000000000000000000000602082015250565b600061339f60288361245c565b91506133aa82613343565b604082019050919050565b600060208201905081810360008301526133ce81613392565b9050919050565b600060408201905081810360008301526133ef81856129c0565b9050818103602083015261340381846129c0565b90509392505050565b7f455243313135353a207472616e7366657220746f20746865207a65726f20616460008201527f6472657373000000000000000000000000000000000000000000000000000000602082015250565b600061346860258361245c565b91506134738261340c565b604082019050919050565b600060208201905081810360008301526134978161345b565b9050919050565b7f455243313135353a20696e73756666696369656e742062616c616e636520666f60008201527f72207472616e7366657200000000000000000000000000000000000000000000602082015250565b60006134fa602a8361245c565b91506135058261349e565b604082019050919050565b60006020820190508181036000830152613529816134ed565b9050919050565b7f455243313135353a2073657474696e6720617070726f76616c2073746174757360008201527f20666f722073656c660000000000000000000000000000000000000000000000602082015250565b600061358c60298361245c565b915061359782613530565b604082019050919050565b600060208201905081810360008301526135bb8161357f565b9050919050565b600081519050919050565b600082825260208201905092915050565b60006135e9826135c2565b6135f381856135cd565b935061360381856020860161246d565b61360c8161229f565b840191505092915050565b600060a08201905061362c6000830188612a40565b6136396020830187612a40565b61364660408301866121b0565b61365360608301856121b0565b818103608083015261366581846135de565b90509695505050505050565b60008151905061368081612206565b92915050565b60006020828403121561369c5761369b6120d2565b5b60006136aa84828501613671565b91505092915050565b60008160e01c9050919050565b600060033d11156136df5760046000803e6136dc6000516136b3565b90505b90565b600060443d1061376f576136f46120c8565b60043d036004823e80513d602482011167ffffffffffffffff8211171561371c57505061376f565b808201805167ffffffffffffffff81111561373a575050505061376f565b80602083010160043d03850181111561375757505050505061376f565b613766826020018501866122df565b82955050505050505b90565b7f455243313135353a207472616e7366657220746f206e6f6e2d4552433131353560008201527f526563656976657220696d706c656d656e746572000000000000000000000000602082015250565b60006137ce60348361245c565b91506137d982613772565b604082019050919050565b600060208201905081810360008301526137fd816137c1565b9050919050565b7f455243313135353a204552433131353552656365697665722072656a6563746560008201527f6420746f6b656e73000000000000000000000000000000000000000000000000602082015250565b600061386060288361245c565b915061386b82613804565b604082019050919050565b6000602082019050818103600083015261388f81613853565b9050919050565b600060a0820190506138ab6000830188612a40565b6138b86020830187612a40565b81810360408301526138ca81866129c0565b905081810360608301526138de81856129c0565b905081810360808301526138f281846135de565b90509695505050505050565b7f5061757361626c653a206e6f7420706175736564000000000000000000000000600082015250565b600061393460148361245c565b915061393f826138fe565b602082019050919050565b6000602082019050818103600083015261396381613927565b9050919050565b7f5061757361626c653a2070617573656400000000000000000000000000000000600082015250565b60006139a060108361245c565b91506139ab8261396a565b602082019050919050565b600060208201905081810360008301526139cf81613993565b9050919050565b7f455243313135353a206275726e20616d6f756e74206578636565647320746f7460008201527f616c537570706c79000000000000000000000000000000000000000000000000602082015250565b6000613a3260288361245c565b9150613a3d826139d6565b604082019050919050565b60006020820190508181036000830152613a6181613a25565b905091905056fea2646970667358221220a2583429d04880f599c3bda7a9e0decc805318be753dbcaee048d79f470d839e64736f6c63430008120033",
  "devdoc": {
    "events": {
      "ApprovalForAll(address,address,bool)": {
        "details": "Emitted when `account` grants or revokes permission to `operator` to transfer their tokens, according to `approved`."
      },
      "Paused(address)": {
        "details": "Emitted when the pause is triggered by `account`."
      },
      "TransferBatch(address,address,address,uint256[],uint256[])": {
        "details": "Equivalent to multiple {TransferSingle} events, where `operator`, `from` and `to` are the same for all transfers."
      },
      "TransferSingle(address,address,address,uint256,uint256)": {
        "details": "Emitted when `value` tokens of token type `id` are transferred from `from` to `to` by `operator`."
      },
      "URI(string,uint256)": {
        "details": "Emitted when the URI for token type `id` changes to `value`, if it is a non-programmatic URI. If an {URI} event was emitted for `id`, the standard https://eips.ethereum.org/EIPS/eip-1155#metadata-extensions[guarantees] that `value` will equal the value returned by {IERC1155MetadataURI-uri}."
      },
      "Unpaused(address)": {
        "details": "Emitted when the pause is lifted by `account`."
      }
    },
    "kind": "dev",
    "methods": {
      "balanceOf(address,uint256)": {
        "details": "See {IERC1155-balanceOf}. Requirements: - `account` cannot be the zero address."
      },
      "balanceOfBatch(address[],uint256[])": {
        "details": "See {IERC1155-balanceOfBatch}. Requirements: - `accounts` and `ids` must have the same length."
      },
      "exists(uint256)": {
        "details": "Indicates whether any token exist with a given id, or not."
      },
      "isApprovedForAll(address,address)": {
        "details": "See {IERC1155-isApprovedForAll}."
      },
      "owner()": {
        "details": "Returns the address of the current owner."
      },
      "paused()": {
        "details": "Returns true if the contract is paused, and false otherwise."
      },
      "renounceOwnership()": {
        "details": "Leaves the contract without owner. It will not be possible to call `onlyOwner` functions anymore. Can only be called by the current owner. NOTE: Renouncing ownership will leave the contract without an owner, thereby removing any functionality that is only available to the owner."
      },
      "safeBatchTransferFrom(address,address,uint256[],uint256[],bytes)": {
        "details": "See {IERC1155-safeBatchTransferFrom}."
      },
      "safeTransferFrom(address,address,uint256,uint256,bytes)": {
        "details": "See {IERC1155-safeTransferFrom}."
      },
      "setApprovalForAll(address,bool)": {
        "details": "See {IERC1155-setApprovalForAll}."
      },
      "supportsInterface(bytes4)": {
        "details": "See {IERC165-supportsInterface}."
      },
      "totalSupply(uint256)": {
        "details": "Total amount of tokens in with a given id."
      },
      "transferOwnership(address)": {
        "details": "Transfers ownership of the contract to a new account (`newOwner`). Can only be called by the current owner."
      },
      "uri(uint256)": {
        "details": "See {IERC1155MetadataURI-uri}. This implementation returns the same URI for *all* token types. It relies on the token type ID substitution mechanism https://eips.ethereum.org/EIPS/eip-1155#metadata[defined in the EIP]. Clients calling this function must replace the `\\{id\\}` substring with the actual token type ID."
      }
    },
    "version": 1
  },
  "userdoc": {
    "kind": "user",
    "methods": {},
    "version": 1
  },
  "storageLayout": {
    "storage": [
      {
        "astId": 246,
        "contract": "contracts/MyToken.sol:MyToken",
        "label": "_balances",
        "offset": 0,
        "slot": "0",
        "type": "t_mapping(t_uint256,t_mapping(t_address,t_uint256))"
      },
      {
        "astId": 252,
        "contract": "contracts/MyToken.sol:MyToken",
        "label": "_operatorApprovals",
        "offset": 0,
        "slot": "1",
        "type": "t_mapping(t_address,t_mapping(t_address,t_bool))"
      },
      {
        "astId": 254,
        "contract": "contracts/MyToken.sol:MyToken",
        "label": "_uri",
        "offset": 0,
        "slot": "2",
        "type": "t_string_storage"
      },
      {
        "astId": 7,
        "contract": "contracts/MyToken.sol:MyToken",
        "label": "_owner",
        "offset": 0,
        "slot": "3",
        "type": "t_address"
      },
      {
        "astId": 130,
        "contract": "contracts/MyToken.sol:MyToken",
        "label": "_paused",
        "offset": 20,
        "slot": "3",
        "type": "t_bool"
      },
      {
        "astId": 1616,
        "contract": "contracts/MyToken.sol:MyToken",
        "label": "_totalSupply",
        "offset": 0,
        "slot": "4",
        "type": "t_mapping(t_uint256,t_uint256)"
      }
    ],
    "types": {
      "t_address": {
        "encoding": "inplace",
        "label": "address",
        "numberOfBytes": "20"
      },
      "t_bool": {
        "encoding": "inplace",
        "label": "bool",
        "numberOfBytes": "1"
      },
      "t_mapping(t_address,t_bool)": {
        "encoding": "mapping",
        "key": "t_address",
        "label": "mapping(address => bool)",
        "numberOfBytes": "32",
        "value": "t_bool"
      },
      "t_mapping(t_address,t_mapping(t_address,t_bool))": {
        "encoding": "mapping",
        "key": "t_address",
        "label": "mapping(address => mapping(address => bool))",
        "numberOfBytes": "32",
        "value": "t_mapping(t_address,t_bool)"
      },
      "t_mapping(t_address,t_uint256)": {
        "encoding": "mapping",
        "key": "t_address",
        "label": "mapping(address => uint256)",
        "numberOfBytes": "32",
        "value": "t_uint256"
      },
      "t_mapping(t_uint256,t_mapping(t_address,t_uint256))": {
        "encoding": "mapping",
        "key": "t_uint256",
        "label": "mapping(uint256 => mapping(address => uint256))",
        "numberOfBytes": "32",
        "value": "t_mapping(t_address,t_uint256)"
      },
      "t_mapping(t_uint256,t_uint256)": {
        "encoding": "mapping",
        "key": "t_uint256",
        "label": "mapping(uint256 => uint256)",
        "numberOfBytes": "32",
        "value": "t_uint256"
      },
      "t_string_storage": {
        "encoding": "bytes",
        "label": "string",
        "numberOfBytes": "32"
      },
      "t_uint256": {
        "encoding": "inplace",
        "label": "uint256",
        "numberOfBytes": "32"
      }
    }
  }
}