{
  "address": "0x5FbDB2315678afecb367f032d93F642f64180aa3",
  "abi": [
    {
      "inputs": [
        {
          "internalType": "string",
          "name": "URI",
          "type": "string"
        }
      ],
      "stateMutability": "nonpayable",
      "type": "constructor"
    },
    {
      "inputs": [
        {
          "internalType": "uint256",
          "name": "price",
          "type": "uint256"
        }
      ],
      "name": "MintPriceError",
      "type": "error"
    },
    {
      "anonymous": false,
      "inputs": [
        {
          "indexed": true,
          "internalType": "address",
          "name": "account",
          "type": "address"
        },
        {
          "indexed": true,
          "internalType": "address",
          "name": "operator",
          "type": "address"
        },
        {
          "indexed": false,
          "internalType": "bool",
          "name": "approved",
          "type": "bool"
        }
      ],
      "name": "ApprovalForAll",
      "type": "event"
    },
    {
      "anonymous": false,
      "inputs": [
        {
          "indexed": true,
          "internalType": "address",
          "name": "previousOwner",
          "type": "address"
        },
        {
          "indexed": true,
          "internalType": "address",
          "name": "newOwner",
          "type": "address"
        }
      ],
      "name": "OwnershipTransferred",
      "type": "event"
    },
    {
      "anonymous": false,
      "inputs": [
        {
          "indexed": false,
          "internalType": "address",
          "name": "account",
          "type": "address"
        }
      ],
      "name": "Paused",
      "type": "event"
    },
    {
      "anonymous": false,
      "inputs": [
        {
          "indexed": true,
          "internalType": "address",
          "name": "operator",
          "type": "address"
        },
        {
          "indexed": true,
          "internalType": "address",
          "name": "from",
          "type": "address"
        },
        {
          "indexed": true,
          "internalType": "address",
          "name": "to",
          "type": "address"
        },
        {
          "indexed": false,
          "internalType": "uint256[]",
          "name": "ids",
          "type": "uint256[]"
        },
        {
          "indexed": false,
          "internalType": "uint256[]",
          "name": "values",
          "type": "uint256[]"
        }
      ],
      "name": "TransferBatch",
      "type": "event"
    },
    {
      "anonymous": false,
      "inputs": [
        {
          "indexed": true,
          "internalType": "address",
          "name": "operator",
          "type": "address"
        },
        {
          "indexed": true,
          "internalType": "address",
          "name": "from",
          "type": "address"
        },
        {
          "indexed": true,
          "internalType": "address",
          "name": "to",
          "type": "address"
        },
        {
          "indexed": false,
          "internalType": "uint256",
          "name": "id",
          "type": "uint256"
        },
        {
          "indexed": false,
          "internalType": "uint256",
          "name": "value",
          "type": "uint256"
        }
      ],
      "name": "TransferSingle",
      "type": "event"
    },
    {
      "anonymous": false,
      "inputs": [
        {
          "indexed": false,
          "internalType": "string",
          "name": "value",
          "type": "string"
        },
        {
          "indexed": true,
          "internalType": "uint256",
          "name": "id",
          "type": "uint256"
        }
      ],
      "name": "URI",
      "type": "event"
    },
    {
      "anonymous": false,
      "inputs": [
        {
          "indexed": false,
          "internalType": "address",
          "name": "account",
          "type": "address"
        }
      ],
      "name": "Unpaused",
      "type": "event"
    },
    {
      "inputs": [
        {
          "internalType": "address",
          "name": "account",
          "type": "address"
        },
        {
          "internalType": "uint256",
          "name": "id",
          "type": "uint256"
        }
      ],
      "name": "balanceOf",
      "outputs": [
        {
          "internalType": "uint256",
          "name": "",
          "type": "uint256"
        }
      ],
      "stateMutability": "view",
      "type": "function"
    },
    {
      "inputs": [
        {
          "internalType": "address[]",
          "name": "accounts",
          "type": "address[]"
        },
        {
          "internalType": "uint256[]",
          "name": "ids",
          "type": "uint256[]"
        }
      ],
      "name": "balanceOfBatch",
      "outputs": [
        {
          "internalType": "uint256[]",
          "name": "",
          "type": "uint256[]"
        }
      ],
      "stateMutability": "view",
      "type": "function"
    },
    {
      "inputs": [
        {
          "internalType": "uint256",
          "name": "id",
          "type": "uint256"
        }
      ],
      "name": "exists",
      "outputs": [
        {
          "internalType": "bool",
          "name": "",
          "type": "bool"
        }
      ],
      "stateMutability": "view",
      "type": "function"
    },
    {
      "inputs": [
        {
          "internalType": "address",
          "name": "account",
          "type": "address"
        },
        {
          "internalType": "address",
          "name": "operator",
          "type": "address"
        }
      ],
      "name": "isApprovedForAll",
      "outputs": [
        {
          "internalType": "bool",
          "name": "",
          "type": "bool"
        }
      ],
      "stateMutability": "view",
      "type": "function"
    },
    {
      "inputs": [
        {
          "internalType": "uint256",
          "name": "id",
          "type": "uint256"
        },
        {
          "internalType": "uint256",
          "name": "amount",
          "type": "uint256"
        }
      ],
      "name": "mint",
      "outputs": [],
      "stateMutability": "payable",
      "type": "function"
    },
    {
      "inputs": [
        {
          "internalType": "address",
          "name": "to",
          "type": "address"
        },
        {
          "internalType": "uint256[]",
          "name": "ids",
          "type": "uint256[]"
        },
        {
          "internalType": "uint256[]",
          "name": "amounts",
          "type": "uint256[]"
        },
        {
          "internalType": "bytes",
          "name": "data",
          "type": "bytes"
        }
      ],
      "name": "mintBatch",
      "outputs": [],
      "stateMutability": "nonpayable",
      "type": "function"
    },
    {
      "inputs": [],
      "name": "owner",
      "outputs": [
        {
          "internalType": "address",
          "name": "",
          "type": "address"
        }
      ],
      "stateMutability": "view",
      "type": "function"
    },
    {
      "inputs": [],
      "name": "pause",
      "outputs": [],
      "stateMutability": "nonpayable",
      "type": "function"
    },
    {
      "inputs": [],
      "name": "paused",
      "outputs": [
        {
          "internalType": "bool",
          "name": "",
          "type": "bool"
        }
      ],
      "stateMutability": "view",
      "type": "function"
    },
    {
      "inputs": [],
      "name": "renounceOwnership",
      "outputs": [],
      "stateMutability": "nonpayable",
      "type": "function"
    },
    {
      "inputs": [],
      "name": "s_mintPrice",
      "outputs": [
        {
          "internalType": "uint256",
          "name": "",
          "type": "uint256"
        }
      ],
      "stateMutability": "view",
      "type": "function"
    },
    {
      "inputs": [
        {
          "internalType": "address",
          "name": "from",
          "type": "address"
        },
        {
          "internalType": "address",
          "name": "to",
          "type": "address"
        },
        {
          "internalType": "uint256[]",
          "name": "ids",
          "type": "uint256[]"
        },
        {
          "internalType": "uint256[]",
          "name": "amounts",
          "type": "uint256[]"
        },
        {
          "internalType": "bytes",
          "name": "data",
          "type": "bytes"
        }
      ],
      "name": "safeBatchTransferFrom",
      "outputs": [],
      "stateMutability": "nonpayable",
      "type": "function"
    },
    {
      "inputs": [
        {
          "internalType": "address",
          "name": "from",
          "type": "address"
        },
        {
          "internalType": "address",
          "name": "to",
          "type": "address"
        },
        {
          "internalType": "uint256",
          "name": "id",
          "type": "uint256"
        },
        {
          "internalType": "uint256",
          "name": "amount",
          "type": "uint256"
        },
        {
          "internalType": "bytes",
          "name": "data",
          "type": "bytes"
        }
      ],
      "name": "safeTransferFrom",
      "outputs": [],
      "stateMutability": "nonpayable",
      "type": "function"
    },
    {
      "inputs": [
        {
          "internalType": "address",
          "name": "operator",
          "type": "address"
        },
        {
          "internalType": "bool",
          "name": "approved",
          "type": "bool"
        }
      ],
      "name": "setApprovalForAll",
      "outputs": [],
      "stateMutability": "nonpayable",
      "type": "function"
    },
    {
      "inputs": [
        {
          "internalType": "string",
          "name": "newURI",
          "type": "string"
        }
      ],
      "name": "setURI",
      "outputs": [],
      "stateMutability": "nonpayable",
      "type": "function"
    },
    {
      "inputs": [
        {
          "internalType": "bytes4",
          "name": "interfaceId",
          "type": "bytes4"
        }
      ],
      "name": "supportsInterface",
      "outputs": [
        {
          "internalType": "bool",
          "name": "",
          "type": "bool"
        }
      ],
      "stateMutability": "view",
      "type": "function"
    },
    {
      "inputs": [
        {
          "internalType": "uint256",
          "name": "id",
          "type": "uint256"
        }
      ],
      "name": "totalSupply",
      "outputs": [
        {
          "internalType": "uint256",
          "name": "",
          "type": "uint256"
        }
      ],
      "stateMutability": "view",
      "type": "function"
    },
    {
      "inputs": [
        {
          "internalType": "address",
          "name": "newOwner",
          "type": "address"
        }
      ],
      "name": "transferOwnership",
      "outputs": [],
      "stateMutability": "nonpayable",
      "type": "function"
    },
    {
      "inputs": [],
      "name": "unpause",
      "outputs": [],
      "stateMutability": "nonpayable",
      "type": "function"
    },
    {
      "inputs": [
        {
          "internalType": "uint256",
          "name": "",
          "type": "uint256"
        }
      ],
      "name": "uri",
      "outputs": [
        {
          "internalType": "string",
          "name": "",
          "type": "string"
        }
      ],
      "stateMutability": "view",
      "type": "function"
    }
  ],
  "transactionHash": "0xb9a59dc8c3f2ef575c5922eb09ba6fe0329a77dc0eb8658be66aaf6a24fc5637",
  "args": [
    "ipfs://Qmaa6TuP2s9pSKczHF4rwWhTKUdygrrDs8RmYYqCjP3Hye/"
  ],
  "numDeployments": 1,
  "solcInputHash": "9e37ec41b6d2c8b15542b022411e465a",
  "bytecode": "0x60806040523480156200001157600080fd5b506040516200409e3803806200409e833981810160405281019062000037919062000302565b8062000049816200008c60201b60201c565b506200006a6200005e620000a160201b60201c565b620000a960201b60201c565b6000600360146101000a81548160ff0219169083151502179055505062000685565b80600290816200009d91906200059e565b5050565b600033905090565b6000600360009054906101000a900473ffffffffffffffffffffffffffffffffffffffff16905081600360006101000a81548173ffffffffffffffffffffffffffffffffffffffff021916908373ffffffffffffffffffffffffffffffffffffffff1602179055508173ffffffffffffffffffffffffffffffffffffffff168173ffffffffffffffffffffffffffffffffffffffff167f8be0079c531659141344cd1fd0a4f28419497f9722a3daafe3b4186f6b6457e060405160405180910390a35050565b6000604051905090565b600080fd5b600080fd5b600080fd5b600080fd5b6000601f19601f8301169050919050565b7f4e487b7100000000000000000000000000000000000000000000000000000000600052604160045260246000fd5b620001d8826200018d565b810181811067ffffffffffffffff82111715620001fa57620001f96200019e565b5b80604052505050565b60006200020f6200016f565b90506200021d8282620001cd565b919050565b600067ffffffffffffffff82111562000240576200023f6200019e565b5b6200024b826200018d565b9050602081019050919050565b60005b83811015620002785780820151818401526020810190506200025b565b60008484015250505050565b60006200029b620002958462000222565b62000203565b905082815260208101848484011115620002ba57620002b962000188565b5b620002c784828562000258565b509392505050565b600082601f830112620002e757620002e662000183565b5b8151620002f984826020860162000284565b91505092915050565b6000602082840312156200031b576200031a62000179565b5b600082015167ffffffffffffffff8111156200033c576200033b6200017e565b5b6200034a84828501620002cf565b91505092915050565b600081519050919050565b7f4e487b7100000000000000000000000000000000000000000000000000000000600052602260045260246000fd5b60006002820490506001821680620003a657607f821691505b602082108103620003bc57620003bb6200035e565b5b50919050565b60008190508160005260206000209050919050565b60006020601f8301049050919050565b600082821b905092915050565b600060088302620004267fffffffffffffffffffffffffffffffffffffffffffffffffffffffffffffffff82620003e7565b620004328683620003e7565b95508019841693508086168417925050509392505050565b6000819050919050565b6000819050919050565b60006200047f6200047962000473846200044a565b62000454565b6200044a565b9050919050565b6000819050919050565b6200049b836200045e565b620004b3620004aa8262000486565b848454620003f4565b825550505050565b600090565b620004ca620004bb565b620004d781848462000490565b505050565b5b81811015620004ff57620004f3600082620004c0565b600181019050620004dd565b5050565b601f8211156200054e576200051881620003c2565b6200052384620003d7565b8101602085101562000533578190505b6200054b6200054285620003d7565b830182620004dc565b50505b505050565b600082821c905092915050565b6000620005736000198460080262000553565b1980831691505092915050565b60006200058e838362000560565b9150826002028217905092915050565b620005a98262000353565b67ffffffffffffffff811115620005c557620005c46200019e565b5b620005d182546200038d565b620005de82828562000503565b600060209050601f83116001811462000616576000841562000601578287015190505b6200060d858262000580565b8655506200067d565b601f1984166200062686620003c2565b60005b82811015620006505784890151825560018201915060208501945060208101905062000629565b868310156200067057848901516200066c601f89168262000560565b8355505b6001600288020188555050505b505050505050565b613a0980620006956000396000f3fe60806040526004361061011e5760003560e01c80634f558e79116100a0578063a22cb46511610064578063a22cb465146103b1578063bd85b039146103da578063e985e9c514610417578063f242432a14610454578063f2fde38b1461047d5761011e565b80634f558e79146102f05780635c975abb1461032d578063715018a6146103585780638456cb591461036f5780638da5cb5b146103865761011e565b80631f7fdffa116100e75780631f7fdffa1461021f578063282f6cf5146102485780632eb2c2d6146102735780633f4ba83a1461029c5780634e1273f4146102b35761011e565b8062fdd58e1461012357806301ffc9a71461016057806302fe53051461019d5780630e89341c146101c65780631b2ef1ca14610203575b600080fd5b34801561012f57600080fd5b5061014a600480360381019061014591906120db565b6104a6565b604051610157919061212a565b60405180910390f35b34801561016c57600080fd5b506101876004803603810190610182919061219d565b61056e565b60405161019491906121e5565b60405180910390f35b3480156101a957600080fd5b506101c460048036038101906101bf9190612346565b610650565b005b3480156101d257600080fd5b506101ed60048036038101906101e8919061238f565b610664565b6040516101fa919061243b565b60405180910390f35b61021d6004803603810190610218919061245d565b6106f8565b005b34801561022b57600080fd5b5061024660048036038101906102419190612606565b61076d565b005b34801561025457600080fd5b5061025d610787565b60405161026a919061212a565b60405180910390f35b34801561027f57600080fd5b5061029a600480360381019061029591906126c1565b610792565b005b3480156102a857600080fd5b506102b1610833565b005b3480156102bf57600080fd5b506102da60048036038101906102d59190612853565b610845565b6040516102e79190612989565b60405180910390f35b3480156102fc57600080fd5b506103176004803603810190610312919061238f565b61095e565b60405161032491906121e5565b60405180910390f35b34801561033957600080fd5b50610342610972565b60405161034f91906121e5565b60405180910390f35b34801561036457600080fd5b5061036d610989565b005b34801561037b57600080fd5b5061038461099d565b005b34801561039257600080fd5b5061039b6109af565b6040516103a891906129ba565b60405180910390f35b3480156103bd57600080fd5b506103d860048036038101906103d39190612a01565b6109d9565b005b3480156103e657600080fd5b5061040160048036038101906103fc919061238f565b6109ef565b60405161040e919061212a565b60405180910390f35b34801561042357600080fd5b5061043e60048036038101906104399190612a41565b610a0c565b60405161044b91906121e5565b60405180910390f35b34801561046057600080fd5b5061047b60048036038101906104769190612a81565b610aa0565b005b34801561048957600080fd5b506104a4600480360381019061049f9190612b18565b610b41565b005b60008073ffffffffffffffffffffffffffffffffffffffff168373ffffffffffffffffffffffffffffffffffffffff1603610516576040517f08c379a000000000000000000000000000000000000000000000000000000000815260040161050d90612bb7565b60405180910390fd5b60008083815260200190815260200160002060008473ffffffffffffffffffffffffffffffffffffffff1673ffffffffffffffffffffffffffffffffffffffff16815260200190815260200160002054905092915050565b60007fd9b67a26000000000000000000000000000000000000000000000000000000007bffffffffffffffffffffffffffffffffffffffffffffffffffffffff1916827bffffffffffffffffffffffffffffffffffffffffffffffffffffffff1916148061063957507f0e89341c000000000000000000000000000000000000000000000000000000007bffffffffffffffffffffffffffffffffffffffffffffffffffffffff1916827bffffffffffffffffffffffffffffffffffffffffffffffffffffffff1916145b80610649575061064882610bc4565b5b9050919050565b610658610c2e565b61066181610cac565b50565b60606002805461067390612c06565b80601f016020809104026020016040519081016040528092919081815260200182805461069f90612c06565b80156106ec5780601f106106c1576101008083540402835291602001916106ec565b820191906000526020600020905b8154815290600101906020018083116106cf57829003601f168201915b50505050509050919050565b80662386f26fc1000061070b9190612c66565b341461074e57346040517f31533c9b000000000000000000000000000000000000000000000000000000008152600401610745919061212a565b60405180910390fd5b61076933838360405180602001604052806000815250610cbf565b5050565b610775610c2e565b61078184848484610e6f565b50505050565b662386f26fc1000081565b61079a61109b565b73ffffffffffffffffffffffffffffffffffffffff168573ffffffffffffffffffffffffffffffffffffffff1614806107e057506107df856107da61109b565b610a0c565b5b61081f576040517f08c379a000000000000000000000000000000000000000000000000000000000815260040161081690612d1a565b60405180910390fd5b61082c85858585856110a3565b5050505050565b61083b610c2e565b6108436113c4565b565b6060815183511461088b576040517f08c379a000000000000000000000000000000000000000000000000000000000815260040161088290612dac565b60405180910390fd5b6000835167ffffffffffffffff8111156108a8576108a761221b565b5b6040519080825280602002602001820160405280156108d65781602001602082028036833780820191505090505b50905060005b8451811015610953576109238582815181106108fb576108fa612dcc565b5b602002602001015185838151811061091657610915612dcc565b5b60200260200101516104a6565b82828151811061093657610935612dcc565b5b6020026020010181815250508061094c90612dfb565b90506108dc565b508091505092915050565b60008061096a836109ef565b119050919050565b6000600360149054906101000a900460ff16905090565b610991610c2e565b61099b6000611427565b565b6109a5610c2e565b6109ad6114ed565b565b6000600360009054906101000a900473ffffffffffffffffffffffffffffffffffffffff16905090565b6109eb6109e461109b565b8383611550565b5050565b600060046000838152602001908152602001600020549050919050565b6000600160008473ffffffffffffffffffffffffffffffffffffffff1673ffffffffffffffffffffffffffffffffffffffff16815260200190815260200160002060008373ffffffffffffffffffffffffffffffffffffffff1673ffffffffffffffffffffffffffffffffffffffff16815260200190815260200160002060009054906101000a900460ff16905092915050565b610aa861109b565b73ffffffffffffffffffffffffffffffffffffffff168573ffffffffffffffffffffffffffffffffffffffff161480610aee5750610aed85610ae861109b565b610a0c565b5b610b2d576040517f08c379a0000000000000000000000000000000000000000000000000000000008152600401610b2490612d1a565b60405180910390fd5b610b3a85858585856116bc565b5050505050565b610b49610c2e565b600073ffffffffffffffffffffffffffffffffffffffff168173ffffffffffffffffffffffffffffffffffffffff1603610bb8576040517f08c379a0000000000000000000000000000000000000000000000000000000008152600401610baf90612eb5565b60405180910390fd5b610bc181611427565b50565b60007f01ffc9a7000000000000000000000000000000000000000000000000000000007bffffffffffffffffffffffffffffffffffffffffffffffffffffffff1916827bffffffffffffffffffffffffffffffffffffffffffffffffffffffff1916149050919050565b610c3661109b565b73ffffffffffffffffffffffffffffffffffffffff16610c546109af565b73ffffffffffffffffffffffffffffffffffffffff1614610caa576040517f08c379a0000000000000000000000000000000000000000000000000000000008152600401610ca190612f21565b60405180910390fd5b565b8060029081610cbb91906130ed565b5050565b600073ffffffffffffffffffffffffffffffffffffffff168473ffffffffffffffffffffffffffffffffffffffff1603610d2e576040517f08c379a0000000000000000000000000000000000000000000000000000000008152600401610d2590613231565b60405180910390fd5b6000610d3861109b565b90506000610d4585611957565b90506000610d5285611957565b9050610d63836000898585896119d1565b8460008088815260200190815260200160002060008973ffffffffffffffffffffffffffffffffffffffff1673ffffffffffffffffffffffffffffffffffffffff1681526020019081526020016000206000828254610dc29190613251565b925050819055508673ffffffffffffffffffffffffffffffffffffffff16600073ffffffffffffffffffffffffffffffffffffffff168473ffffffffffffffffffffffffffffffffffffffff167fc3d58168c5ae7397731d063d5bbf3d657854427343f4c083240f7aacaa2d0f628989604051610e40929190613285565b60405180910390a4610e57836000898585896119ef565b610e66836000898989896119f7565b50505050505050565b600073ffffffffffffffffffffffffffffffffffffffff168473ffffffffffffffffffffffffffffffffffffffff1603610ede576040517f08c379a0000000000000000000000000000000000000000000000000000000008152600401610ed590613231565b60405180910390fd5b8151835114610f22576040517f08c379a0000000000000000000000000000000000000000000000000000000008152600401610f1990613320565b60405180910390fd5b6000610f2c61109b565b9050610f3d816000878787876119d1565b60005b8451811015610ff657838181518110610f5c57610f5b612dcc565b5b6020026020010151600080878481518110610f7a57610f79612dcc565b5b6020026020010151815260200190815260200160002060008873ffffffffffffffffffffffffffffffffffffffff1673ffffffffffffffffffffffffffffffffffffffff1681526020019081526020016000206000828254610fdc9190613251565b925050819055508080610fee90612dfb565b915050610f40565b508473ffffffffffffffffffffffffffffffffffffffff16600073ffffffffffffffffffffffffffffffffffffffff168273ffffffffffffffffffffffffffffffffffffffff167f4a39dc06d4c0dbc64b70af90fd698a233a518aa5d07e595d983b8c0526c8f7fb878760405161106e929190613340565b60405180910390a4611085816000878787876119ef565b61109481600087878787611bce565b5050505050565b600033905090565b81518351146110e7576040517f08c379a00000000000000000000000000000000000000000000000000000000081526004016110de90613320565b60405180910390fd5b600073ffffffffffffffffffffffffffffffffffffffff168473ffffffffffffffffffffffffffffffffffffffff1603611156576040517f08c379a000000000000000000000000000000000000000000000000000000000815260040161114d906133e9565b60405180910390fd5b600061116061109b565b90506111708187878787876119d1565b60005b845181101561132157600085828151811061119157611190612dcc565b5b6020026020010151905060008583815181106111b0576111af612dcc565b5b60200260200101519050600080600084815260200190815260200160002060008b73ffffffffffffffffffffffffffffffffffffffff1673ffffffffffffffffffffffffffffffffffffffff16815260200190815260200160002054905081811015611251576040517f08c379a00000000000000000000000000000000000000000000000000000000081526004016112489061347b565b60405180910390fd5b81810360008085815260200190815260200160002060008c73ffffffffffffffffffffffffffffffffffffffff1673ffffffffffffffffffffffffffffffffffffffff168152602001908152602001600020819055508160008085815260200190815260200160002060008b73ffffffffffffffffffffffffffffffffffffffff1673ffffffffffffffffffffffffffffffffffffffff16815260200190815260200160002060008282546113069190613251565b925050819055505050508061131a90612dfb565b9050611173565b508473ffffffffffffffffffffffffffffffffffffffff168673ffffffffffffffffffffffffffffffffffffffff168273ffffffffffffffffffffffffffffffffffffffff167f4a39dc06d4c0dbc64b70af90fd698a233a518aa5d07e595d983b8c0526c8f7fb8787604051611398929190613340565b60405180910390a46113ae8187878787876119ef565b6113bc818787878787611bce565b505050505050565b6113cc611da5565b6000600360146101000a81548160ff0219169083151502179055507f5db9ee0a495bf2e6ff9c91a7834c1ba4fdd244a5e8aa4e537bd38aeae4b073aa61141061109b565b60405161141d91906129ba565b60405180910390a1565b6000600360009054906101000a900473ffffffffffffffffffffffffffffffffffffffff16905081600360006101000a81548173ffffffffffffffffffffffffffffffffffffffff021916908373ffffffffffffffffffffffffffffffffffffffff1602179055508173ffffffffffffffffffffffffffffffffffffffff168173ffffffffffffffffffffffffffffffffffffffff167f8be0079c531659141344cd1fd0a4f28419497f9722a3daafe3b4186f6b6457e060405160405180910390a35050565b6114f5611dee565b6001600360146101000a81548160ff0219169083151502179055507f62e78cea01bee320cd4e420270b5ea74000d11b0c9f74754ebdbfc544b05a25861153961109b565b60405161154691906129ba565b60405180910390a1565b8173ffffffffffffffffffffffffffffffffffffffff168373ffffffffffffffffffffffffffffffffffffffff16036115be576040517f08c379a00000000000000000000000000000000000000000000000000000000081526004016115b59061350d565b60405180910390fd5b80600160008573ffffffffffffffffffffffffffffffffffffffff1673ffffffffffffffffffffffffffffffffffffffff16815260200190815260200160002060008473ffffffffffffffffffffffffffffffffffffffff1673ffffffffffffffffffffffffffffffffffffffff16815260200190815260200160002060006101000a81548160ff0219169083151502179055508173ffffffffffffffffffffffffffffffffffffffff168373ffffffffffffffffffffffffffffffffffffffff167f17307eab39ab6107e8899845ad3d59bd9653f200f220920489ca2b5937696c31836040516116af91906121e5565b60405180910390a3505050565b600073ffffffffffffffffffffffffffffffffffffffff168473ffffffffffffffffffffffffffffffffffffffff160361172b576040517f08c379a0000000000000000000000000000000000000000000000000000000008152600401611722906133e9565b60405180910390fd5b600061173561109b565b9050600061174285611957565b9050600061174f85611957565b905061175f8389898585896119d1565b600080600088815260200190815260200160002060008a73ffffffffffffffffffffffffffffffffffffffff1673ffffffffffffffffffffffffffffffffffffffff168152602001908152602001600020549050858110156117f6576040517f08c379a00000000000000000000000000000000000000000000000000000000081526004016117ed9061347b565b60405180910390fd5b85810360008089815260200190815260200160002060008b73ffffffffffffffffffffffffffffffffffffffff1673ffffffffffffffffffffffffffffffffffffffff168152602001908152602001600020819055508560008089815260200190815260200160002060008a73ffffffffffffffffffffffffffffffffffffffff1673ffffffffffffffffffffffffffffffffffffffff16815260200190815260200160002060008282546118ab9190613251565b925050819055508773ffffffffffffffffffffffffffffffffffffffff168973ffffffffffffffffffffffffffffffffffffffff168573ffffffffffffffffffffffffffffffffffffffff167fc3d58168c5ae7397731d063d5bbf3d657854427343f4c083240f7aacaa2d0f628a8a604051611928929190613285565b60405180910390a461193e848a8a86868a6119ef565b61194c848a8a8a8a8a6119f7565b505050505050505050565b60606000600167ffffffffffffffff8111156119765761197561221b565b5b6040519080825280602002602001820160405280156119a45781602001602082028036833780820191505090505b50905082816000815181106119bc576119bb612dcc565b5b60200260200101818152505080915050919050565b6119d9611dee565b6119e7868686868686611e38565b505050505050565b505050505050565b611a168473ffffffffffffffffffffffffffffffffffffffff16612008565b15611bc6578373ffffffffffffffffffffffffffffffffffffffff1663f23a6e6187878686866040518663ffffffff1660e01b8152600401611a5c959493929190613582565b6020604051808303816000875af1925050508015611a9857506040513d601f19601f82011682018060405250810190611a9591906135f1565b60015b611b3d57611aa461362b565b806308c379a003611b005750611ab861364d565b80611ac35750611b02565b806040517f08c379a0000000000000000000000000000000000000000000000000000000008152600401611af7919061243b565b60405180910390fd5b505b6040517f08c379a0000000000000000000000000000000000000000000000000000000008152600401611b349061374f565b60405180910390fd5b63f23a6e6160e01b7bffffffffffffffffffffffffffffffffffffffffffffffffffffffff1916817bffffffffffffffffffffffffffffffffffffffffffffffffffffffff191614611bc4576040517f08c379a0000000000000000000000000000000000000000000000000000000008152600401611bbb906137e1565b60405180910390fd5b505b505050505050565b611bed8473ffffffffffffffffffffffffffffffffffffffff16612008565b15611d9d578373ffffffffffffffffffffffffffffffffffffffff1663bc197c8187878686866040518663ffffffff1660e01b8152600401611c33959493929190613801565b6020604051808303816000875af1925050508015611c6f57506040513d601f19601f82011682018060405250810190611c6c91906135f1565b60015b611d1457611c7b61362b565b806308c379a003611cd75750611c8f61364d565b80611c9a5750611cd9565b806040517f08c379a0000000000000000000000000000000000000000000000000000000008152600401611cce919061243b565b60405180910390fd5b505b6040517f08c379a0000000000000000000000000000000000000000000000000000000008152600401611d0b9061374f565b60405180910390fd5b63bc197c8160e01b7bffffffffffffffffffffffffffffffffffffffffffffffffffffffff1916817bffffffffffffffffffffffffffffffffffffffffffffffffffffffff191614611d9b576040517f08c379a0000000000000000000000000000000000000000000000000000000008152600401611d92906137e1565b60405180910390fd5b505b505050505050565b611dad610972565b611dec576040517f08c379a0000000000000000000000000000000000000000000000000000000008152600401611de3906138b5565b60405180910390fd5b565b611df6610972565b15611e36576040517f08c379a0000000000000000000000000000000000000000000000000000000008152600401611e2d90613921565b60405180910390fd5b565b611e4686868686868661202b565b600073ffffffffffffffffffffffffffffffffffffffff168573ffffffffffffffffffffffffffffffffffffffff1603611ef75760005b8351811015611ef557828181518110611e9957611e98612dcc565b5b602002602001015160046000868481518110611eb857611eb7612dcc565b5b602002602001015181526020019081526020016000206000828254611edd9190613251565b9250508190555080611eee90612dfb565b9050611e7d565b505b600073ffffffffffffffffffffffffffffffffffffffff168473ffffffffffffffffffffffffffffffffffffffff16036120005760005b8351811015611ffe576000848281518110611f4c57611f4b612dcc565b5b602002602001015190506000848381518110611f6b57611f6a612dcc565b5b6020026020010151905060006004600084815260200190815260200160002054905081811015611fd0576040517f08c379a0000000000000000000000000000000000000000000000000000000008152600401611fc7906139b3565b60405180910390fd5b818103600460008581526020019081526020016000208190555050505080611ff790612dfb565b9050611f2e565b505b505050505050565b6000808273ffffffffffffffffffffffffffffffffffffffff163b119050919050565b505050505050565b6000604051905090565b600080fd5b600080fd5b600073ffffffffffffffffffffffffffffffffffffffff82169050919050565b600061207282612047565b9050919050565b61208281612067565b811461208d57600080fd5b50565b60008135905061209f81612079565b92915050565b6000819050919050565b6120b8816120a5565b81146120c357600080fd5b50565b6000813590506120d5816120af565b92915050565b600080604083850312156120f2576120f161203d565b5b600061210085828601612090565b9250506020612111858286016120c6565b9150509250929050565b612124816120a5565b82525050565b600060208201905061213f600083018461211b565b92915050565b60007fffffffff0000000000000000000000000000000000000000000000000000000082169050919050565b61217a81612145565b811461218557600080fd5b50565b60008135905061219781612171565b92915050565b6000602082840312156121b3576121b261203d565b5b60006121c184828501612188565b91505092915050565b60008115159050919050565b6121df816121ca565b82525050565b60006020820190506121fa60008301846121d6565b92915050565b600080fd5b600080fd5b6000601f19601f8301169050919050565b7f4e487b7100000000000000000000000000000000000000000000000000000000600052604160045260246000fd5b6122538261220a565b810181811067ffffffffffffffff821117156122725761227161221b565b5b80604052505050565b6000612285612033565b9050612291828261224a565b919050565b600067ffffffffffffffff8211156122b1576122b061221b565b5b6122ba8261220a565b9050602081019050919050565b82818337600083830152505050565b60006122e96122e484612296565b61227b565b90508281526020810184848401111561230557612304612205565b5b6123108482856122c7565b509392505050565b600082601f83011261232d5761232c612200565b5b813561233d8482602086016122d6565b91505092915050565b60006020828403121561235c5761235b61203d565b5b600082013567ffffffffffffffff81111561237a57612379612042565b5b61238684828501612318565b91505092915050565b6000602082840312156123a5576123a461203d565b5b60006123b3848285016120c6565b91505092915050565b600081519050919050565b600082825260208201905092915050565b60005b838110156123f65780820151818401526020810190506123db565b60008484015250505050565b600061240d826123bc565b61241781856123c7565b93506124278185602086016123d8565b6124308161220a565b840191505092915050565b600060208201905081810360008301526124558184612402565b905092915050565b600080604083850312156124745761247361203d565b5b6000612482858286016120c6565b9250506020612493858286016120c6565b9150509250929050565b600067ffffffffffffffff8211156124b8576124b761221b565b5b602082029050602081019050919050565b600080fd5b60006124e16124dc8461249d565b61227b565b90508083825260208201905060208402830185811115612504576125036124c9565b5b835b8181101561252d578061251988826120c6565b845260208401935050602081019050612506565b5050509392505050565b600082601f83011261254c5761254b612200565b5b813561255c8482602086016124ce565b91505092915050565b600067ffffffffffffffff8211156125805761257f61221b565b5b6125898261220a565b9050602081019050919050565b60006125a96125a484612565565b61227b565b9050828152602081018484840111156125c5576125c4612205565b5b6125d08482856122c7565b509392505050565b600082601f8301126125ed576125ec612200565b5b81356125fd848260208601612596565b91505092915050565b600080600080608085870312156126205761261f61203d565b5b600061262e87828801612090565b945050602085013567ffffffffffffffff81111561264f5761264e612042565b5b61265b87828801612537565b935050604085013567ffffffffffffffff81111561267c5761267b612042565b5b61268887828801612537565b925050606085013567ffffffffffffffff8111156126a9576126a8612042565b5b6126b5878288016125d8565b91505092959194509250565b600080600080600060a086880312156126dd576126dc61203d565b5b60006126eb88828901612090565b95505060206126fc88828901612090565b945050604086013567ffffffffffffffff81111561271d5761271c612042565b5b61272988828901612537565b935050606086013567ffffffffffffffff81111561274a57612749612042565b5b61275688828901612537565b925050608086013567ffffffffffffffff81111561277757612776612042565b5b612783888289016125d8565b9150509295509295909350565b600067ffffffffffffffff8211156127ab576127aa61221b565b5b602082029050602081019050919050565b60006127cf6127ca84612790565b61227b565b905080838252602082019050602084028301858111156127f2576127f16124c9565b5b835b8181101561281b57806128078882612090565b8452602084019350506020810190506127f4565b5050509392505050565b600082601f83011261283a57612839612200565b5b813561284a8482602086016127bc565b91505092915050565b6000806040838503121561286a5761286961203d565b5b600083013567ffffffffffffffff81111561288857612887612042565b5b61289485828601612825565b925050602083013567ffffffffffffffff8111156128b5576128b4612042565b5b6128c185828601612537565b9150509250929050565b600081519050919050565b600082825260208201905092915050565b6000819050602082019050919050565b612900816120a5565b82525050565b600061291283836128f7565b60208301905092915050565b6000602082019050919050565b6000612936826128cb565b61294081856128d6565b935061294b836128e7565b8060005b8381101561297c5781516129638882612906565b975061296e8361291e565b92505060018101905061294f565b5085935050505092915050565b600060208201905081810360008301526129a3818461292b565b905092915050565b6129b481612067565b82525050565b60006020820190506129cf60008301846129ab565b92915050565b6129de816121ca565b81146129e957600080fd5b50565b6000813590506129fb816129d5565b92915050565b60008060408385031215612a1857612a1761203d565b5b6000612a2685828601612090565b9250506020612a37858286016129ec565b9150509250929050565b60008060408385031215612a5857612a5761203d565b5b6000612a6685828601612090565b9250506020612a7785828601612090565b9150509250929050565b600080600080600060a08688031215612a9d57612a9c61203d565b5b6000612aab88828901612090565b9550506020612abc88828901612090565b9450506040612acd888289016120c6565b9350506060612ade888289016120c6565b925050608086013567ffffffffffffffff811115612aff57612afe612042565b5b612b0b888289016125d8565b9150509295509295909350565b600060208284031215612b2e57612b2d61203d565b5b6000612b3c84828501612090565b91505092915050565b7f455243313135353a2061646472657373207a65726f206973206e6f742061207660008201527f616c6964206f776e657200000000000000000000000000000000000000000000602082015250565b6000612ba1602a836123c7565b9150612bac82612b45565b604082019050919050565b60006020820190508181036000830152612bd081612b94565b9050919050565b7f4e487b7100000000000000000000000000000000000000000000000000000000600052602260045260246000fd5b60006002820490506001821680612c1e57607f821691505b602082108103612c3157612c30612bd7565b5b50919050565b7f4e487b7100000000000000000000000000000000000000000000000000000000600052601160045260246000fd5b6000612c71826120a5565b9150612c7c836120a5565b9250828202612c8a816120a5565b91508282048414831517612ca157612ca0612c37565b5b5092915050565b7f455243313135353a2063616c6c6572206973206e6f7420746f6b656e206f776e60008201527f6572206f7220617070726f766564000000000000000000000000000000000000602082015250565b6000612d04602e836123c7565b9150612d0f82612ca8565b604082019050919050565b60006020820190508181036000830152612d3381612cf7565b9050919050565b7f455243313135353a206163636f756e747320616e6420696473206c656e67746860008201527f206d69736d617463680000000000000000000000000000000000000000000000602082015250565b6000612d966029836123c7565b9150612da182612d3a565b604082019050919050565b60006020820190508181036000830152612dc581612d89565b9050919050565b7f4e487b7100000000000000000000000000000000000000000000000000000000600052603260045260246000fd5b6000612e06826120a5565b91507fffffffffffffffffffffffffffffffffffffffffffffffffffffffffffffffff8203612e3857612e37612c37565b5b600182019050919050565b7f4f776e61626c653a206e6577206f776e657220697320746865207a65726f206160008201527f6464726573730000000000000000000000000000000000000000000000000000602082015250565b6000612e9f6026836123c7565b9150612eaa82612e43565b604082019050919050565b60006020820190508181036000830152612ece81612e92565b9050919050565b7f4f776e61626c653a2063616c6c6572206973206e6f7420746865206f776e6572600082015250565b6000612f0b6020836123c7565b9150612f1682612ed5565b602082019050919050565b60006020820190508181036000830152612f3a81612efe565b9050919050565b60008190508160005260206000209050919050565b60006020601f8301049050919050565b600082821b905092915050565b600060088302612fa37fffffffffffffffffffffffffffffffffffffffffffffffffffffffffffffffff82612f66565b612fad8683612f66565b95508019841693508086168417925050509392505050565b6000819050919050565b6000612fea612fe5612fe0846120a5565b612fc5565b6120a5565b9050919050565b6000819050919050565b61300483612fcf565b61301861301082612ff1565b848454612f73565b825550505050565b600090565b61302d613020565b613038818484612ffb565b505050565b5b8181101561305c57613051600082613025565b60018101905061303e565b5050565b601f8211156130a15761307281612f41565b61307b84612f56565b8101602085101561308a578190505b61309e61309685612f56565b83018261303d565b50505b505050565b600082821c905092915050565b60006130c4600019846008026130a6565b1980831691505092915050565b60006130dd83836130b3565b9150826002028217905092915050565b6130f6826123bc565b67ffffffffffffffff81111561310f5761310e61221b565b5b6131198254612c06565b613124828285613060565b600060209050601f8311600181146131575760008415613145578287015190505b61314f85826130d1565b8655506131b7565b601f19841661316586612f41565b60005b8281101561318d57848901518255600182019150602085019450602081019050613168565b868310156131aa57848901516131a6601f8916826130b3565b8355505b6001600288020188555050505b505050505050565b7f455243313135353a206d696e7420746f20746865207a65726f2061646472657360008201527f7300000000000000000000000000000000000000000000000000000000000000602082015250565b600061321b6021836123c7565b9150613226826131bf565b604082019050919050565b6000602082019050818103600083015261324a8161320e565b9050919050565b600061325c826120a5565b9150613267836120a5565b925082820190508082111561327f5761327e612c37565b5b92915050565b600060408201905061329a600083018561211b565b6132a7602083018461211b565b9392505050565b7f455243313135353a2069647320616e6420616d6f756e7473206c656e6774682060008201527f6d69736d61746368000000000000000000000000000000000000000000000000602082015250565b600061330a6028836123c7565b9150613315826132ae565b604082019050919050565b60006020820190508181036000830152613339816132fd565b9050919050565b6000604082019050818103600083015261335a818561292b565b9050818103602083015261336e818461292b565b90509392505050565b7f455243313135353a207472616e7366657220746f20746865207a65726f20616460008201527f6472657373000000000000000000000000000000000000000000000000000000602082015250565b60006133d36025836123c7565b91506133de82613377565b604082019050919050565b60006020820190508181036000830152613402816133c6565b9050919050565b7f455243313135353a20696e73756666696369656e742062616c616e636520666f60008201527f72207472616e7366657200000000000000000000000000000000000000000000602082015250565b6000613465602a836123c7565b915061347082613409565b604082019050919050565b6000602082019050818103600083015261349481613458565b9050919050565b7f455243313135353a2073657474696e6720617070726f76616c2073746174757360008201527f20666f722073656c660000000000000000000000000000000000000000000000602082015250565b60006134f76029836123c7565b91506135028261349b565b604082019050919050565b60006020820190508181036000830152613526816134ea565b9050919050565b600081519050919050565b600082825260208201905092915050565b60006135548261352d565b61355e8185613538565b935061356e8185602086016123d8565b6135778161220a565b840191505092915050565b600060a08201905061359760008301886129ab565b6135a460208301876129ab565b6135b1604083018661211b565b6135be606083018561211b565b81810360808301526135d08184613549565b90509695505050505050565b6000815190506135eb81612171565b92915050565b6000602082840312156136075761360661203d565b5b6000613615848285016135dc565b91505092915050565b60008160e01c9050919050565b600060033d111561364a5760046000803e61364760005161361e565b90505b90565b600060443d106136da5761365f612033565b60043d036004823e80513d602482011167ffffffffffffffff821117156136875750506136da565b808201805167ffffffffffffffff8111156136a557505050506136da565b80602083010160043d0385018111156136c25750505050506136da565b6136d18260200185018661224a565b82955050505050505b90565b7f455243313135353a207472616e7366657220746f206e6f6e2d4552433131353560008201527f526563656976657220696d706c656d656e746572000000000000000000000000602082015250565b60006137396034836123c7565b9150613744826136dd565b604082019050919050565b600060208201905081810360008301526137688161372c565b9050919050565b7f455243313135353a204552433131353552656365697665722072656a6563746560008201527f6420746f6b656e73000000000000000000000000000000000000000000000000602082015250565b60006137cb6028836123c7565b91506137d68261376f565b604082019050919050565b600060208201905081810360008301526137fa816137be565b9050919050565b600060a08201905061381660008301886129ab565b61382360208301876129ab565b8181036040830152613835818661292b565b90508181036060830152613849818561292b565b9050818103608083015261385d8184613549565b90509695505050505050565b7f5061757361626c653a206e6f7420706175736564000000000000000000000000600082015250565b600061389f6014836123c7565b91506138aa82613869565b602082019050919050565b600060208201905081810360008301526138ce81613892565b9050919050565b7f5061757361626c653a2070617573656400000000000000000000000000000000600082015250565b600061390b6010836123c7565b9150613916826138d5565b602082019050919050565b6000602082019050818103600083015261393a816138fe565b9050919050565b7f455243313135353a206275726e20616d6f756e74206578636565647320746f7460008201527f616c537570706c79000000000000000000000000000000000000000000000000602082015250565b600061399d6028836123c7565b91506139a882613941565b604082019050919050565b600060208201905081810360008301526139cc81613990565b905091905056fea26469706673582212203ebad2d4b098fc7af86ec79f1bfa18cd91b0ecce3066ee94944954e0639c63ba64736f6c63430008120033",
  "devdoc": {
    "events": {
      "ApprovalForAll(address,address,bool)": {
        "details": "Emitted when `account` grants or revokes permission to `operator` to transfer their tokens, according to `approved`."
      },
      "Paused(address)": {
        "details": "Emitted when the pause is triggered by `account`."
      },
      "TransferBatch(address,address,address,uint256[],uint256[])": {
        "details": "Equivalent to multiple {TransferSingle} events, where `operator`, `from` and `to` are the same for all transfers."
      },
      "TransferSingle(address,address,address,uint256,uint256)": {
        "details": "Emitted when `value` tokens of token type `id` are transferred from `from` to `to` by `operator`."
      },
      "URI(string,uint256)": {
        "details": "Emitted when the URI for token type `id` changes to `value`, if it is a non-programmatic URI. If an {URI} event was emitted for `id`, the standard https://eips.ethereum.org/EIPS/eip-1155#metadata-extensions[guarantees] that `value` will equal the value returned by {IERC1155MetadataURI-uri}."
      },
      "Unpaused(address)": {
        "details": "Emitted when the pause is lifted by `account`."
      }
    },
    "kind": "dev",
    "methods": {
      "balanceOf(address,uint256)": {
        "details": "See {IERC1155-balanceOf}. Requirements: - `account` cannot be the zero address."
      },
      "balanceOfBatch(address[],uint256[])": {
        "details": "See {IERC1155-balanceOfBatch}. Requirements: - `accounts` and `ids` must have the same length."
      },
      "exists(uint256)": {
        "details": "Indicates whether any token exist with a given id, or not."
      },
      "isApprovedForAll(address,address)": {
        "details": "See {IERC1155-isApprovedForAll}."
      },
      "owner()": {
        "details": "Returns the address of the current owner."
      },
      "paused()": {
        "details": "Returns true if the contract is paused, and false otherwise."
      },
      "renounceOwnership()": {
        "details": "Leaves the contract without owner. It will not be possible to call `onlyOwner` functions anymore. Can only be called by the current owner. NOTE: Renouncing ownership will leave the contract without an owner, thereby removing any functionality that is only available to the owner."
      },
      "safeBatchTransferFrom(address,address,uint256[],uint256[],bytes)": {
        "details": "See {IERC1155-safeBatchTransferFrom}."
      },
      "safeTransferFrom(address,address,uint256,uint256,bytes)": {
        "details": "See {IERC1155-safeTransferFrom}."
      },
      "setApprovalForAll(address,bool)": {
        "details": "See {IERC1155-setApprovalForAll}."
      },
      "supportsInterface(bytes4)": {
        "details": "See {IERC165-supportsInterface}."
      },
      "totalSupply(uint256)": {
        "details": "Total amount of tokens in with a given id."
      },
      "transferOwnership(address)": {
        "details": "Transfers ownership of the contract to a new account (`newOwner`). Can only be called by the current owner."
      },
      "uri(uint256)": {
        "details": "See {IERC1155MetadataURI-uri}. This implementation returns the same URI for *all* token types. It relies on the token type ID substitution mechanism https://eips.ethereum.org/EIPS/eip-1155#metadata[defined in the EIP]. Clients calling this function must replace the `\\{id\\}` substring with the actual token type ID."
      }
    },
    "version": 1
  },
  "userdoc": {
    "kind": "user",
    "methods": {},
    "version": 1
  },
  "storageLayout": {
    "storage": [
      {
        "astId": 246,
        "contract": "contracts/MyToken.sol:MyToken",
        "label": "_balances",
        "offset": 0,
        "slot": "0",
        "type": "t_mapping(t_uint256,t_mapping(t_address,t_uint256))"
      },
      {
        "astId": 252,
        "contract": "contracts/MyToken.sol:MyToken",
        "label": "_operatorApprovals",
        "offset": 0,
        "slot": "1",
        "type": "t_mapping(t_address,t_mapping(t_address,t_bool))"
      },
      {
        "astId": 254,
        "contract": "contracts/MyToken.sol:MyToken",
        "label": "_uri",
        "offset": 0,
        "slot": "2",
        "type": "t_string_storage"
      },
      {
        "astId": 7,
        "contract": "contracts/MyToken.sol:MyToken",
        "label": "_owner",
        "offset": 0,
        "slot": "3",
        "type": "t_address"
      },
      {
        "astId": 130,
        "contract": "contracts/MyToken.sol:MyToken",
        "label": "_paused",
        "offset": 20,
        "slot": "3",
        "type": "t_bool"
      },
      {
        "astId": 1616,
        "contract": "contracts/MyToken.sol:MyToken",
        "label": "_totalSupply",
        "offset": 0,
        "slot": "4",
        "type": "t_mapping(t_uint256,t_uint256)"
      }
    ],
    "types": {
      "t_address": {
        "encoding": "inplace",
        "label": "address",
        "numberOfBytes": "20"
      },
      "t_bool": {
        "encoding": "inplace",
        "label": "bool",
        "numberOfBytes": "1"
      },
      "t_mapping(t_address,t_bool)": {
        "encoding": "mapping",
        "key": "t_address",
        "label": "mapping(address => bool)",
        "numberOfBytes": "32",
        "value": "t_bool"
      },
      "t_mapping(t_address,t_mapping(t_address,t_bool))": {
        "encoding": "mapping",
        "key": "t_address",
        "label": "mapping(address => mapping(address => bool))",
        "numberOfBytes": "32",
        "value": "t_mapping(t_address,t_bool)"
      },
      "t_mapping(t_address,t_uint256)": {
        "encoding": "mapping",
        "key": "t_address",
        "label": "mapping(address => uint256)",
        "numberOfBytes": "32",
        "value": "t_uint256"
      },
      "t_mapping(t_uint256,t_mapping(t_address,t_uint256))": {
        "encoding": "mapping",
        "key": "t_uint256",
        "label": "mapping(uint256 => mapping(address => uint256))",
        "numberOfBytes": "32",
        "value": "t_mapping(t_address,t_uint256)"
      },
      "t_mapping(t_uint256,t_uint256)": {
        "encoding": "mapping",
        "key": "t_uint256",
        "label": "mapping(uint256 => uint256)",
        "numberOfBytes": "32",
        "value": "t_uint256"
      },
      "t_string_storage": {
        "encoding": "bytes",
        "label": "string",
        "numberOfBytes": "32"
      },
      "t_uint256": {
        "encoding": "inplace",
        "label": "uint256",
        "numberOfBytes": "32"
      }
    }
  }
}